{
  "_format": "hh-sol-artifact-1",
  "contractName": "MyRandomNFT",
  "sourceName": "contracts/MyRandomNFT.sol",
  "abi": [
    {
      "inputs": [],
      "stateMutability": "nonpayable",
      "type": "constructor"
    },
    {
      "anonymous": false,
      "inputs": [
        {
          "indexed": true,
          "internalType": "address",
          "name": "owner",
          "type": "address"
        },
        {
          "indexed": true,
          "internalType": "address",
          "name": "approved",
          "type": "address"
        },
        {
          "indexed": true,
          "internalType": "uint256",
          "name": "tokenId",
          "type": "uint256"
        }
      ],
      "name": "Approval",
      "type": "event"
    },
    {
      "anonymous": false,
      "inputs": [
        {
          "indexed": true,
          "internalType": "address",
          "name": "owner",
          "type": "address"
        },
        {
          "indexed": true,
          "internalType": "address",
          "name": "operator",
          "type": "address"
        },
        {
          "indexed": false,
          "internalType": "bool",
          "name": "approved",
          "type": "bool"
        }
      ],
      "name": "ApprovalForAll",
      "type": "event"
    },
    {
      "anonymous": false,
      "inputs": [
        {
          "indexed": true,
          "internalType": "address",
          "name": "from",
          "type": "address"
        },
        {
          "indexed": true,
          "internalType": "address",
          "name": "to",
          "type": "address"
        },
        {
          "indexed": true,
          "internalType": "uint256",
          "name": "tokenId",
          "type": "uint256"
        }
      ],
      "name": "Transfer",
      "type": "event"
    },
    {
      "inputs": [
        {
          "internalType": "address",
          "name": "to",
          "type": "address"
        },
        {
          "internalType": "uint256",
          "name": "tokenId",
          "type": "uint256"
        }
      ],
      "name": "approve",
      "outputs": [],
      "stateMutability": "nonpayable",
      "type": "function"
    },
    {
      "inputs": [
        {
          "internalType": "address",
          "name": "owner",
          "type": "address"
        }
      ],
      "name": "balanceOf",
      "outputs": [
        {
          "internalType": "uint256",
          "name": "",
          "type": "uint256"
        }
      ],
      "stateMutability": "view",
      "type": "function"
    },
    {
      "inputs": [
        {
          "internalType": "uint256",
          "name": "tokenId",
          "type": "uint256"
        }
      ],
      "name": "getApproved",
      "outputs": [
        {
          "internalType": "address",
          "name": "",
          "type": "address"
        }
      ],
      "stateMutability": "view",
      "type": "function"
    },
    {
      "inputs": [
        {
          "internalType": "address",
          "name": "owner",
          "type": "address"
        },
        {
          "internalType": "address",
          "name": "operator",
          "type": "address"
        }
      ],
      "name": "isApprovedForAll",
      "outputs": [
        {
          "internalType": "bool",
          "name": "",
          "type": "bool"
        }
      ],
      "stateMutability": "view",
      "type": "function"
    },
    {
      "inputs": [],
      "name": "makeARandomNFT",
      "outputs": [],
      "stateMutability": "nonpayable",
      "type": "function"
    },
    {
      "inputs": [],
      "name": "name",
      "outputs": [
        {
          "internalType": "string",
          "name": "",
          "type": "string"
        }
      ],
      "stateMutability": "view",
      "type": "function"
    },
    {
      "inputs": [
        {
          "internalType": "uint256",
          "name": "tokenId",
          "type": "uint256"
        }
      ],
      "name": "ownerOf",
      "outputs": [
        {
          "internalType": "address",
          "name": "",
          "type": "address"
        }
      ],
      "stateMutability": "view",
      "type": "function"
    },
    {
      "inputs": [
        {
          "internalType": "uint256",
          "name": "tokenId",
          "type": "uint256"
        }
      ],
      "name": "pickRandomFirstWordFromGeneric",
      "outputs": [
        {
          "internalType": "string",
          "name": "",
          "type": "string"
        }
      ],
      "stateMutability": "view",
      "type": "function"
    },
    {
      "inputs": [
        {
          "internalType": "uint256",
          "name": "tokenId",
          "type": "uint256"
        },
        {
          "internalType": "string[]",
          "name": "collection",
          "type": "string[]"
        },
        {
          "internalType": "string",
          "name": "seed",
          "type": "string"
        }
      ],
      "name": "pickRandomFromCollection",
      "outputs": [
        {
          "internalType": "string",
          "name": "",
          "type": "string"
        }
      ],
      "stateMutability": "view",
      "type": "function"
    },
    {
      "inputs": [
        {
          "internalType": "uint256",
          "name": "tokenId",
          "type": "uint256"
        }
      ],
      "name": "pickRandomSecondWordFromGeneric",
      "outputs": [
        {
          "internalType": "string",
          "name": "",
          "type": "string"
        }
      ],
      "stateMutability": "view",
      "type": "function"
    },
    {
      "inputs": [
        {
          "internalType": "uint256",
          "name": "tokenId",
          "type": "uint256"
        }
      ],
      "name": "pickRandomThirdWordFromGeneric",
      "outputs": [
        {
          "internalType": "string",
          "name": "",
          "type": "string"
        }
      ],
      "stateMutability": "view",
      "type": "function"
    },
    {
      "inputs": [
        {
          "internalType": "address",
          "name": "from",
          "type": "address"
        },
        {
          "internalType": "address",
          "name": "to",
          "type": "address"
        },
        {
          "internalType": "uint256",
          "name": "tokenId",
          "type": "uint256"
        }
      ],
      "name": "safeTransferFrom",
      "outputs": [],
      "stateMutability": "nonpayable",
      "type": "function"
    },
    {
      "inputs": [
        {
          "internalType": "address",
          "name": "from",
          "type": "address"
        },
        {
          "internalType": "address",
          "name": "to",
          "type": "address"
        },
        {
          "internalType": "uint256",
          "name": "tokenId",
          "type": "uint256"
        },
        {
          "internalType": "bytes",
          "name": "_data",
          "type": "bytes"
        }
      ],
      "name": "safeTransferFrom",
      "outputs": [],
      "stateMutability": "nonpayable",
      "type": "function"
    },
    {
      "inputs": [
        {
          "internalType": "address",
          "name": "operator",
          "type": "address"
        },
        {
          "internalType": "bool",
          "name": "approved",
          "type": "bool"
        }
      ],
      "name": "setApprovalForAll",
      "outputs": [],
      "stateMutability": "nonpayable",
      "type": "function"
    },
    {
      "inputs": [
        {
          "internalType": "bytes4",
          "name": "interfaceId",
          "type": "bytes4"
        }
      ],
      "name": "supportsInterface",
      "outputs": [
        {
          "internalType": "bool",
          "name": "",
          "type": "bool"
        }
      ],
      "stateMutability": "view",
      "type": "function"
    },
    {
      "inputs": [],
      "name": "symbol",
      "outputs": [
        {
          "internalType": "string",
          "name": "",
          "type": "string"
        }
      ],
      "stateMutability": "view",
      "type": "function"
    },
    {
      "inputs": [
        {
          "internalType": "uint256",
          "name": "tokenId",
          "type": "uint256"
        }
      ],
      "name": "tokenURI",
      "outputs": [
        {
          "internalType": "string",
          "name": "",
          "type": "string"
        }
      ],
      "stateMutability": "view",
      "type": "function"
    },
    {
      "inputs": [
        {
          "internalType": "address",
          "name": "from",
          "type": "address"
        },
        {
          "internalType": "address",
          "name": "to",
          "type": "address"
        },
        {
          "internalType": "uint256",
          "name": "tokenId",
          "type": "uint256"
        }
      ],
      "name": "transferFrom",
      "outputs": [],
      "stateMutability": "nonpayable",
      "type": "function"
    }
  ],
  "bytecode": "0x608060405260405180610160016040528061012f815260200162004d4c61012f913960089080519060200190620000389291906200102f565b506040518061028001604052806040518060400160405280600681526020017f546f6469626f000000000000000000000000000000000000000000000000000081525081526020016040518060400160405280600781526020017f50616c6c6f69730000000000000000000000000000000000000000000000000081525081526020016040518060400160405280600681526020017f477261646974000000000000000000000000000000000000000000000000000081525081526020016040518060400160405280600781526020017f44656e617965720000000000000000000000000000000000000000000000000081525081526020016040518060400160405280600681526020017f53616c696261000000000000000000000000000000000000000000000000000081525081526020016040518060400160405280600a81526020017f4d61727175696e686f730000000000000000000000000000000000000000000081525081526020016040518060400160405280600481526020017f52616d690000000000000000000000000000000000000000000000000000000081525081526020016040518060400160405280600681526020017f416d61646f75000000000000000000000000000000000000000000000000000081525081526020016040518060400160405280600781526020017f4c61706f7274650000000000000000000000000000000000000000000000000081525081526020016040518060400160405280600481526020017f466165730000000000000000000000000000000000000000000000000000000081525081526020016040518060400160405280600781526020017f4d6564696f75620000000000000000000000000000000000000000000000000081525081526020016040518060400160405280600a81526020017f486f756e746f6e646a690000000000000000000000000000000000000000000081525081526020016040518060400160405280600481526020017f436163690000000000000000000000000000000000000000000000000000000081525081526020016040518060400160405280600681526020017f416775657264000000000000000000000000000000000000000000000000000081525081526020016040518060400160405280600a81526020017f43686172646f6e6e65740000000000000000000000000000000000000000000081525081526020016040518060400160405280600581526020017f466f6e746500000000000000000000000000000000000000000000000000000081525081526020016040518060400160405280600781526020017f4d616e67616c610000000000000000000000000000000000000000000000000081525081526020016040518060400160405280600781526020017f536f75717565740000000000000000000000000000000000000000000000000081525081526020016040518060400160405280600681526020017f446973617369000000000000000000000000000000000000000000000000000081525081526020016040518060400160405280600681526020017f54686f6d617300000000000000000000000000000000000000000000000000008152508152506009906014620004f1929190620010c0565b506040518061028001604052806040518060400160405280600881526020017f426f7564616f756900000000000000000000000000000000000000000000000081525081526020016040518060400160405280600481526020017f426c61730000000000000000000000000000000000000000000000000000000081525081526020016040518060400160405280600681526020017f4b616b757461000000000000000000000000000000000000000000000000000081525081526020016040518060400160405280600581526020017f416f75617200000000000000000000000000000000000000000000000000000081525081526020016040518060400160405280600981526020017f4775656e646f757a69000000000000000000000000000000000000000000000081525081526020016040518060400160405280600781526020017f566572726174690000000000000000000000000000000000000000000000000081525081526020016040518060400160405280600a81526020017f43686176616c6572696e0000000000000000000000000000000000000000000081525081526020016040518060400160405280600781526020017f426f756c6179610000000000000000000000000000000000000000000000000081525081526020016040518060400160405280600a81526020017f4d6f6e636f6e647569740000000000000000000000000000000000000000000081525081526020016040518060400160405280600881526020017f4d6174757369776100000000000000000000000000000000000000000000000081525081526020016040518060400160405280600481526020017f41646c690000000000000000000000000000000000000000000000000000000081525081526020016040518060400160405280600781526020017f4761737469656e0000000000000000000000000000000000000000000000000081525081526020016040518060400160405280600981526020017f54686f6d6173736f6e000000000000000000000000000000000000000000000081525081526020016040518060400160405280600581526020017f4d616a657200000000000000000000000000000000000000000000000000000081525081526020016040518060400160405280600781526020017f486f6e6f7261740000000000000000000000000000000000000000000000000081525081526020016040518060400160405280600581526020017f42616d626100000000000000000000000000000000000000000000000000000081525081526020016040518060400160405280600981526020017f426f756465626f757a000000000000000000000000000000000000000000000081525081526020016040518060400160405280600681526020017f4d6f6c6c6574000000000000000000000000000000000000000000000000000081525081526020016040518060400160405280600481526020017f44696f700000000000000000000000000000000000000000000000000000000081525081526020016040518060400160405280600781526020017f46756c67696e6900000000000000000000000000000000000000000000000000815250815250600a906014620009aa929190620010c0565b506040518061028001604052806040518060400160405280600681526020017f476f75697269000000000000000000000000000000000000000000000000000081525081526020016040518060400160405280600581526020017f53696d6f6e00000000000000000000000000000000000000000000000000000081525081526020016040518060400160405280600a81526020017f4b616c696d75656e646f0000000000000000000000000000000000000000000081525081526020016040518060400160405280600781526020017f44656d62656c650000000000000000000000000000000000000000000000000081525081526020016040518060400160405280600581526020017f4d696c696b00000000000000000000000000000000000000000000000000000081525081526020016040518060400160405280600581526020017f4d6573736900000000000000000000000000000000000000000000000000000081525081526020016040518060400160405280600881526020017f546f757a6768617200000000000000000000000000000000000000000000000081525081526020016040518060400160405280600581526020017f4e69616e6500000000000000000000000000000000000000000000000000000081525081526020016040518060400160405280600781526020017f536f756d616e6f0000000000000000000000000000000000000000000000000081525081526020016040518060400160405280600781526020017f456b6974696b650000000000000000000000000000000000000000000000000081525081526020016040518060400160405280600581526020017f4877616e6700000000000000000000000000000000000000000000000000000081525081526020016040518060400160405280600481526020017f4261796f0000000000000000000000000000000000000000000000000000000081525081526020016040518060400160405280600781526020017f416a6f727175650000000000000000000000000000000000000000000000000081525081526020016040518060400160405280600781526020017f4c61626f7264650000000000000000000000000000000000000000000000000081525081526020016040518060400160405280600681526020017f4d6f756e6965000000000000000000000000000000000000000000000000000081525081526020016040518060400160405280600581526020017f446176696400000000000000000000000000000000000000000000000000000081525081526020016040518060400160405280600681526020017f4b68617a7269000000000000000000000000000000000000000000000000000081525081526020016040518060400160405280600481526020017f576168690000000000000000000000000000000000000000000000000000000081525081526020016040518060400160405280600781526020017f566f6c6c616e640000000000000000000000000000000000000000000000000081525081526020016040518060400160405280600781526020017f4261686f6b656e00000000000000000000000000000000000000000000000000815250815250600b90601462000e63929190620010c0565b5034801562000e7157600080fd5b506040518060400160405280600981526020017f5371756172654e465400000000000000000000000000000000000000000000008152506040518060400160405280600681526020017f5351554152450000000000000000000000000000000000000000000000000000815250816000908051906020019062000ef69291906200102f565b50806001908051906020019062000f0f9291906200102f565b50505062000f5d6040518060400160405280601e81526020017f54686973206973206d79204e465420636f6e74726163742e20576f616821000081525062000f6360201b620011e91760201c565b620012e1565b620010038160405160240162000f7a9190620011f5565b6040516020818303038152906040527f41304fac000000000000000000000000000000000000000000000000000000007bffffffffffffffffffffffffffffffffffffffffffffffffffffffff19166020820180517bffffffffffffffffffffffffffffffffffffffffffffffffffffffff83818316178352505050506200100660201b60201c565b50565b60008151905060006a636f6e736f6c652e6c6f679050602083016000808483855afa5050505050565b8280546200103d906200126b565b90600052602060002090601f016020900481019282620010615760008555620010ad565b82601f106200107c57805160ff1916838001178555620010ad565b82800160010185558215620010ad579182015b82811115620010ac5782518255916020019190600101906200108f565b5b509050620010bc919062001127565b5090565b82805482825590600052602060002090810192821562001114579160200282015b8281111562001113578251829080519060200190620011029291906200102f565b5091602001919060010190620010e1565b5b50905062001123919062001146565b5090565b5b808211156200114257600081600090555060010162001128565b5090565b5b808211156200116a57600081816200116091906200116e565b5060010162001147565b5090565b5080546200117c906200126b565b6000825580601f10620011905750620011b1565b601f016020900490600052602060002090810190620011b0919062001127565b5b50565b6000620011c18262001219565b620011cd818562001224565b9350620011df81856020860162001235565b620011ea81620012d0565b840191505092915050565b60006020820190508181036000830152620012118184620011b4565b905092915050565b600081519050919050565b600082825260208201905092915050565b60005b838110156200125557808201518184015260208101905062001238565b8381111562001265576000848401525b50505050565b600060028204905060018216806200128457607f821691505b602082108114156200129b576200129a620012a1565b5b50919050565b7f4e487b7100000000000000000000000000000000000000000000000000000000600052602260045260246000fd5b6000601f19601f8301169050919050565b613a5b80620012f16000396000f3fe608060405234801561001057600080fd5b50600436106101165760003560e01c806370a08231116100a2578063a5c35ad811610071578063a5c35ad8146102f1578063b88d4fde14610321578063beb2e05b1461033d578063c87b56dd1461036d578063e985e9c51461039d57610116565b806370a082311461025757806395d89b41146102875780639af84514146102a5578063a22cb465146102d557610116565b8063106c8dbf116100e9578063106c8dbf146101b557806323b872dd146101bf5780633a0416b3146101db57806342842e0e1461020b5780636352211e1461022757610116565b806301ffc9a71461011b57806306fdde031461014b578063081812fc14610169578063095ea7b314610199575b600080fd5b610135600480360381019061013091906126d8565b6103cd565b6040516101429190613275565b60405180910390f35b6101536104af565b6040516101609190613290565b60405180910390f35b610183600480360381019061017e919061272a565b610541565b604051610190919061320e565b60405180910390f35b6101b360048036038101906101ae919061269c565b6105c6565b005b6101bd6106de565b005b6101d960048036038101906101d49190612596565b610911565b005b6101f560048036038101906101f0919061272a565b610971565b6040516102029190613290565b60405180910390f35b61022560048036038101906102209190612596565b610a8b565b005b610241600480360381019061023c919061272a565b610aab565b60405161024e919061320e565b60405180910390f35b610271600480360381019061026c9190612531565b610b5d565b60405161027e91906134f0565b60405180910390f35b61028f610c15565b60405161029c9190613290565b60405180910390f35b6102bf60048036038101906102ba9190612753565b610ca7565b6040516102cc9190613290565b60405180910390f35b6102ef60048036038101906102ea9190612660565b610d57565b005b61030b6004803603810190610306919061272a565b610d6d565b6040516103189190613290565b60405180910390f35b61033b600480360381019061033691906125e5565b610e87565b005b6103576004803603810190610352919061272a565b610ee9565b6040516103649190613290565b60405180910390f35b6103876004803603810190610382919061272a565b611003565b6040516103949190613290565b60405180910390f35b6103b760048036038101906103b2919061255a565b611155565b6040516103c49190613275565b60405180910390f35b60007f80ac58cd000000000000000000000000000000000000000000000000000000007bffffffffffffffffffffffffffffffffffffffffffffffffffffffff1916827bffffffffffffffffffffffffffffffffffffffffffffffffffffffff1916148061049857507f5b5e139f000000000000000000000000000000000000000000000000000000007bffffffffffffffffffffffffffffffffffffffffffffffffffffffff1916827bffffffffffffffffffffffffffffffffffffffffffffffffffffffff1916145b806104a857506104a782611282565b5b9050919050565b6060600080546104be906137eb565b80601f01602080910402602001604051908101604052809291908181526020018280546104ea906137eb565b80156105375780601f1061050c57610100808354040283529160200191610537565b820191906000526020600020905b81548152906001019060200180831161051a57829003601f168201915b5050505050905090565b600061054c826112ec565b61058b576040517f08c379a000000000000000000000000000000000000000000000000000000000815260040161058290613450565b60405180910390fd5b6004600083815260200190815260200160002060009054906101000a900473ffffffffffffffffffffffffffffffffffffffff169050919050565b60006105d182610aab565b90508073ffffffffffffffffffffffffffffffffffffffff168373ffffffffffffffffffffffffffffffffffffffff161415610642576040517f08c379a0000000000000000000000000000000000000000000000000000000008152600401610639906134b0565b60405180910390fd5b8073ffffffffffffffffffffffffffffffffffffffff16610661611358565b73ffffffffffffffffffffffffffffffffffffffff161480610690575061068f8161068a611358565b611155565b5b6106cf576040517f08c379a00000000000000000000000000000000000000000000000000000000081526004016106c690613390565b60405180910390fd5b6106d98383611360565b505050565b60006106ea6007611419565b905060006106f782610ee9565b9050600061070483610d6d565b9050600061071184610971565b9050600083838360405160200161072a939291906130fc565b60405160208183030381529060405290506000600882604051602001610751929190613178565b60405160208183030381529060405290506107a06040518060400160405280601581526020017f0a2d2d2d2d2d2d2d2d2d2d2d2d2d2d2d2d2d2d2d2d00000000000000000000008152506111e9565b6107a9816111e9565b6107e76040518060400160405280601581526020017f2d2d2d2d2d2d2d2d2d2d2d2d2d2d2d2d2d2d2d2d0a00000000000000000000008152506111e9565b600061081b836107f684611427565b6040516020016108079291906131a7565b604051602081830303815290604052611427565b905060008160405160200161083091906131ec565b604051602081830303815290604052905061087f6040518060400160405280601581526020017f0a2d2d2d2d2d2d2d2d2d2d2d2d2d2d2d2d2d2d2d2d00000000000000000000008152506111e9565b610888816111e9565b6108c66040518060400160405280601581526020017f2d2d2d2d2d2d2d2d2d2d2d2d2d2d2d2d2d2d2d2d0a00000000000000000000008152506111e9565b6108d033896115e5565b6108da8882611603565b6108e46007611677565b6109076040518060600160405280602581526020016139c160259139893361168d565b5050505050505050565b61092261091c611358565b8261172c565b610961576040517f08c379a0000000000000000000000000000000000000000000000000000000008152600401610958906134d0565b60405180910390fd5b61096c83838361180a565b505050565b6060610a8482600b805480602002602001604051908101604052809291908181526020016000905b82821015610a455783829060005260206000200180546109b8906137eb565b80601f01602080910402602001604051908101604052809291908181526020018280546109e4906137eb565b8015610a315780601f10610a0657610100808354040283529160200191610a31565b820191906000526020600020905b815481529060010190602001808311610a1457829003601f168201915b505050505081526020019060010190610999565b505050506040518060400160405280600a81526020017f54484952445f574f524400000000000000000000000000000000000000000000815250610ca7565b9050919050565b610aa683838360405180602001604052806000815250610e87565b505050565b6000806002600084815260200190815260200160002060009054906101000a900473ffffffffffffffffffffffffffffffffffffffff169050600073ffffffffffffffffffffffffffffffffffffffff168173ffffffffffffffffffffffffffffffffffffffff161415610b54576040517f08c379a0000000000000000000000000000000000000000000000000000000008152600401610b4b906133d0565b60405180910390fd5b80915050919050565b60008073ffffffffffffffffffffffffffffffffffffffff168273ffffffffffffffffffffffffffffffffffffffff161415610bce576040517f08c379a0000000000000000000000000000000000000000000000000000000008152600401610bc5906133b0565b60405180910390fd5b600360008373ffffffffffffffffffffffffffffffffffffffff1673ffffffffffffffffffffffffffffffffffffffff168152602001908152602001600020549050919050565b606060018054610c24906137eb565b80601f0160208091040260200160405190810160405280929190818152602001828054610c50906137eb565b8015610c9d5780601f10610c7257610100808354040283529160200191610c9d565b820191906000526020600020905b815481529060010190602001808311610c8057829003601f168201915b5050505050905090565b60606000610cfb83610cb887611a66565b610cc144611a66565b610cca43611a66565b610cd342611a66565b604051602001610ce795949392919061312d565b604051602081830303815290604052611c13565b9050835181610d0a9190613866565b9050838181518110610d45577f4e487b7100000000000000000000000000000000000000000000000000000000600052603260045260246000fd5b60200260200101519150509392505050565b610d69610d62611358565b8383611c46565b5050565b6060610e8082600a805480602002602001604051908101604052809291908181526020016000905b82821015610e41578382906000526020600020018054610db4906137eb565b80601f0160208091040260200160405190810160405280929190818152602001828054610de0906137eb565b8015610e2d5780601f10610e0257610100808354040283529160200191610e2d565b820191906000526020600020905b815481529060010190602001808311610e1057829003601f168201915b505050505081526020019060010190610d95565b505050506040518060400160405280600b81526020017f5345434f4e445f574f5244000000000000000000000000000000000000000000815250610ca7565b9050919050565b610e98610e92611358565b8361172c565b610ed7576040517f08c379a0000000000000000000000000000000000000000000000000000000008152600401610ece906134d0565b60405180910390fd5b610ee384848484611db3565b50505050565b6060610ffc826009805480602002602001604051908101604052809291908181526020016000905b82821015610fbd578382906000526020600020018054610f30906137eb565b80601f0160208091040260200160405190810160405280929190818152602001828054610f5c906137eb565b8015610fa95780601f10610f7e57610100808354040283529160200191610fa9565b820191906000526020600020905b815481529060010190602001808311610f8c57829003601f168201915b505050505081526020019060010190610f11565b505050506040518060400160405280600a81526020017f46495253545f574f524400000000000000000000000000000000000000000000815250610ca7565b9050919050565b606061100e826112ec565b61104d576040517f08c379a000000000000000000000000000000000000000000000000000000000815260040161104490613430565b60405180910390fd5b600060066000848152602001908152602001600020805461106d906137eb565b80601f0160208091040260200160405190810160405280929190818152602001828054611099906137eb565b80156110e65780601f106110bb576101008083540402835291602001916110e6565b820191906000526020600020905b8154815290600101906020018083116110c957829003601f168201915b5050505050905060006110f7611e0f565b905060008151141561110d578192505050611150565b60008251111561114257808260405160200161112a9291906130d8565b60405160208183030381529060405292505050611150565b61114b84611e26565b925050505b919050565b6000600560008473ffffffffffffffffffffffffffffffffffffffff1673ffffffffffffffffffffffffffffffffffffffff16815260200190815260200160002060008373ffffffffffffffffffffffffffffffffffffffff1673ffffffffffffffffffffffffffffffffffffffff16815260200190815260200160002060009054906101000a900460ff16905092915050565b61127f816040516024016111fd9190613290565b6040516020818303038152906040527f41304fac000000000000000000000000000000000000000000000000000000007bffffffffffffffffffffffffffffffffffffffffffffffffffffffff19166020820180517bffffffffffffffffffffffffffffffffffffffffffffffffffffffff8381831617835250505050611ecd565b50565b60007f01ffc9a7000000000000000000000000000000000000000000000000000000007bffffffffffffffffffffffffffffffffffffffffffffffffffffffff1916827bffffffffffffffffffffffffffffffffffffffffffffffffffffffff1916149050919050565b60008073ffffffffffffffffffffffffffffffffffffffff166002600084815260200190815260200160002060009054906101000a900473ffffffffffffffffffffffffffffffffffffffff1673ffffffffffffffffffffffffffffffffffffffff1614159050919050565b600033905090565b816004600083815260200190815260200160002060006101000a81548173ffffffffffffffffffffffffffffffffffffffff021916908373ffffffffffffffffffffffffffffffffffffffff160217905550808273ffffffffffffffffffffffffffffffffffffffff166113d383610aab565b73ffffffffffffffffffffffffffffffffffffffff167f8c5be1e5ebec7d5bd14f71427d1e84f3dd0314c0f7b2291e5b200ac8c7c3b92560405160405180910390a45050565b600081600001549050919050565b6060600082519050600081141561145057604051806020016040528060008152509150506115e0565b600060036002836114619190613620565b61146b9190613676565b600461147791906136a7565b905060006020826114889190613620565b67ffffffffffffffff8111156114c7577f4e487b7100000000000000000000000000000000000000000000000000000000600052604160045260246000fd5b6040519080825280601f01601f1916602001820160405280156114f95781602001600182028036833780820191505090505b50905060006040518060600160405280604081526020016139e6604091399050600181016020830160005b8681101561159d5760038101905062ffffff818a015116603f8160121c168401518060081b905060ff603f83600c1c1686015116810190508060081b905060ff603f8360061c1686015116810190508060081b905060ff603f831686015116810190508060e01b90508084526004840193505050611524565b5060038606600181146115b757600281146115c7576115d2565b613d3d60f01b60028303526115d2565b603d60f81b60018303525b508484525050819450505050505b919050565b6115ff828260405180602001604052806000815250611ef6565b5050565b61160c826112ec565b61164b576040517f08c379a0000000000000000000000000000000000000000000000000000000008152600401611642906133f0565b60405180910390fd5b806006600084815260200190815260200160002090805190602001906116729291906122ce565b505050565b6001816000016000828254019250508190555050565b6117278383836040516024016116a5939291906132b2565b6040516020818303038152906040527fe3849f79000000000000000000000000000000000000000000000000000000007bffffffffffffffffffffffffffffffffffffffffffffffffffffffff19166020820180517bffffffffffffffffffffffffffffffffffffffffffffffffffffffff8381831617835250505050611ecd565b505050565b6000611737826112ec565b611776576040517f08c379a000000000000000000000000000000000000000000000000000000000815260040161176d90613370565b60405180910390fd5b600061178183610aab565b90508073ffffffffffffffffffffffffffffffffffffffff168473ffffffffffffffffffffffffffffffffffffffff1614806117f057508373ffffffffffffffffffffffffffffffffffffffff166117d884610541565b73ffffffffffffffffffffffffffffffffffffffff16145b8061180157506118008185611155565b5b91505092915050565b8273ffffffffffffffffffffffffffffffffffffffff1661182a82610aab565b73ffffffffffffffffffffffffffffffffffffffff1614611880576040517f08c379a000000000000000000000000000000000000000000000000000000000815260040161187790613470565b60405180910390fd5b600073ffffffffffffffffffffffffffffffffffffffff168273ffffffffffffffffffffffffffffffffffffffff1614156118f0576040517f08c379a00000000000000000000000000000000000000000000000000000000081526004016118e790613330565b60405180910390fd5b6118fb838383611f51565b611906600082611360565b6001600360008573ffffffffffffffffffffffffffffffffffffffff1673ffffffffffffffffffffffffffffffffffffffff16815260200190815260200160002060008282546119569190613701565b925050819055506001600360008473ffffffffffffffffffffffffffffffffffffffff1673ffffffffffffffffffffffffffffffffffffffff16815260200190815260200160002060008282546119ad9190613620565b92505081905550816002600083815260200190815260200160002060006101000a81548173ffffffffffffffffffffffffffffffffffffffff021916908373ffffffffffffffffffffffffffffffffffffffff160217905550808273ffffffffffffffffffffffffffffffffffffffff168473ffffffffffffffffffffffffffffffffffffffff167fddf252ad1be2c89b69c2b068fc378daa952ba7f163c4a11628f55a4df523b3ef60405160405180910390a4505050565b60606000821415611aae576040518060400160405280600181526020017f30000000000000000000000000000000000000000000000000000000000000008152509050611c0e565b600082905060005b60008214611ae0578080611ac99061381d565b915050600a82611ad99190613676565b9150611ab6565b60008167ffffffffffffffff811115611b22577f4e487b7100000000000000000000000000000000000000000000000000000000600052604160045260246000fd5b6040519080825280601f01601f191660200182016040528015611b545781602001600182028036833780820191505090505b5090505b60008514611c0757600182611b6d9190613701565b9150600a85611b7c9190613866565b6030611b889190613620565b60f81b818381518110611bc4577f4e487b7100000000000000000000000000000000000000000000000000000000600052603260045260246000fd5b60200101907effffffffffffffffffffffffffffffffffffffffffffffffffffffffffffff1916908160001a905350600a85611c009190613676565b9450611b58565b8093505050505b919050565b600081604051602001611c2691906130c1565b6040516020818303038152906040528051906020012060001c9050919050565b8173ffffffffffffffffffffffffffffffffffffffff168373ffffffffffffffffffffffffffffffffffffffff161415611cb5576040517f08c379a0000000000000000000000000000000000000000000000000000000008152600401611cac90613350565b60405180910390fd5b80600560008573ffffffffffffffffffffffffffffffffffffffff1673ffffffffffffffffffffffffffffffffffffffff16815260200190815260200160002060008473ffffffffffffffffffffffffffffffffffffffff1673ffffffffffffffffffffffffffffffffffffffff16815260200190815260200160002060006101000a81548160ff0219169083151502179055508173ffffffffffffffffffffffffffffffffffffffff168373ffffffffffffffffffffffffffffffffffffffff167f17307eab39ab6107e8899845ad3d59bd9653f200f220920489ca2b5937696c3183604051611da69190613275565b60405180910390a3505050565b611dbe84848461180a565b611dca84848484611f56565b611e09576040517f08c379a0000000000000000000000000000000000000000000000000000000008152600401611e00906132f0565b60405180910390fd5b50505050565b606060405180602001604052806000815250905090565b6060611e31826112ec565b611e70576040517f08c379a0000000000000000000000000000000000000000000000000000000008152600401611e6790613490565b60405180910390fd5b6000611e7a611e0f565b90506000815111611e9a5760405180602001604052806000815250611ec5565b80611ea484611a66565b604051602001611eb59291906130d8565b6040516020818303038152906040525b915050919050565b60008151905060006a636f6e736f6c652e6c6f679050602083016000808483855afa5050505050565b611f0083836120ed565b611f0d6000848484611f56565b611f4c576040517f08c379a0000000000000000000000000000000000000000000000000000000008152600401611f43906132f0565b60405180910390fd5b505050565b505050565b6000611f778473ffffffffffffffffffffffffffffffffffffffff166122bb565b156120e0578373ffffffffffffffffffffffffffffffffffffffff1663150b7a02611fa0611358565b8786866040518563ffffffff1660e01b8152600401611fc29493929190613229565b602060405180830381600087803b158015611fdc57600080fd5b505af192505050801561200d57506040513d601f19601f8201168201806040525081019061200a9190612701565b60015b612090573d806000811461203d576040519150601f19603f3d011682016040523d82523d6000602084013e612042565b606091505b50600081511415612088576040517f08c379a000000000000000000000000000000000000000000000000000000000815260040161207f906132f0565b60405180910390fd5b805181602001fd5b63150b7a0260e01b7bffffffffffffffffffffffffffffffffffffffffffffffffffffffff1916817bffffffffffffffffffffffffffffffffffffffffffffffffffffffff1916149150506120e5565b600190505b949350505050565b600073ffffffffffffffffffffffffffffffffffffffff168273ffffffffffffffffffffffffffffffffffffffff16141561215d576040517f08c379a000000000000000000000000000000000000000000000000000000000815260040161215490613410565b60405180910390fd5b612166816112ec565b156121a6576040517f08c379a000000000000000000000000000000000000000000000000000000000815260040161219d90613310565b60405180910390fd5b6121b260008383611f51565b6001600360008473ffffffffffffffffffffffffffffffffffffffff1673ffffffffffffffffffffffffffffffffffffffff16815260200190815260200160002060008282546122029190613620565b92505081905550816002600083815260200190815260200160002060006101000a81548173ffffffffffffffffffffffffffffffffffffffff021916908373ffffffffffffffffffffffffffffffffffffffff160217905550808273ffffffffffffffffffffffffffffffffffffffff16600073ffffffffffffffffffffffffffffffffffffffff167fddf252ad1be2c89b69c2b068fc378daa952ba7f163c4a11628f55a4df523b3ef60405160405180910390a45050565b600080823b905060008111915050919050565b8280546122da906137eb565b90600052602060002090601f0160209004810192826122fc5760008555612343565b82601f1061231557805160ff1916838001178555612343565b82800160010185558215612343579182015b82811115612342578251825591602001919060010190612327565b5b5090506123509190612354565b5090565b5b8082111561236d576000816000905550600101612355565b5090565b600061238461237f8461353c565b61350b565b9050808382526020820190508260005b858110156123c457813585016123aa88826124f2565b845260208401935060208301925050600181019050612394565b5050509392505050565b60006123e16123dc84613568565b61350b565b9050828152602081018484840111156123f957600080fd5b6124048482856137a9565b509392505050565b600061241f61241a84613598565b61350b565b90508281526020810184848401111561243757600080fd5b6124428482856137a9565b509392505050565b60008135905061245981613964565b92915050565b600082601f83011261247057600080fd5b8135612480848260208601612371565b91505092915050565b6000813590506124988161397b565b92915050565b6000813590506124ad81613992565b92915050565b6000815190506124c281613992565b92915050565b600082601f8301126124d957600080fd5b81356124e98482602086016123ce565b91505092915050565b600082601f83011261250357600080fd5b813561251384826020860161240c565b91505092915050565b60008135905061252b816139a9565b92915050565b60006020828403121561254357600080fd5b60006125518482850161244a565b91505092915050565b6000806040838503121561256d57600080fd5b600061257b8582860161244a565b925050602061258c8582860161244a565b9150509250929050565b6000806000606084860312156125ab57600080fd5b60006125b98682870161244a565b93505060206125ca8682870161244a565b92505060406125db8682870161251c565b9150509250925092565b600080600080608085870312156125fb57600080fd5b60006126098782880161244a565b945050602061261a8782880161244a565b935050604061262b8782880161251c565b925050606085013567ffffffffffffffff81111561264857600080fd5b612654878288016124c8565b91505092959194509250565b6000806040838503121561267357600080fd5b60006126818582860161244a565b925050602061269285828601612489565b9150509250929050565b600080604083850312156126af57600080fd5b60006126bd8582860161244a565b92505060206126ce8582860161251c565b9150509250929050565b6000602082840312156126ea57600080fd5b60006126f88482850161249e565b91505092915050565b60006020828403121561271357600080fd5b6000612721848285016124b3565b91505092915050565b60006020828403121561273c57600080fd5b600061274a8482850161251c565b91505092915050565b60008060006060848603121561276857600080fd5b60006127768682870161251c565b935050602084013567ffffffffffffffff81111561279357600080fd5b61279f8682870161245f565b925050604084013567ffffffffffffffff8111156127bc57600080fd5b6127c8868287016124f2565b9150509250925092565b6127db81613735565b82525050565b6127ea81613747565b82525050565b60006127fb826135dd565b61280581856135f3565b93506128158185602086016137b8565b61281e81613953565b840191505092915050565b6000612834826135e8565b61283e8185613604565b935061284e8185602086016137b8565b61285781613953565b840191505092915050565b600061286d826135e8565b6128778185613615565b93506128878185602086016137b8565b80840191505092915050565b600081546128a0816137eb565b6128aa8186613615565b945060018216600081146128c557600181146128d657612909565b60ff19831686528186019350612909565b6128df856135c8565b60005b83811015612901578154818901526001820191506020810190506128e2565b838801955050505b50505092915050565b600061291f603283613604565b91507f4552433732313a207472616e7366657220746f206e6f6e20455243373231526560008301527f63656976657220696d706c656d656e74657200000000000000000000000000006020830152604082019050919050565b6000612985601c83613604565b91507f4552433732313a20746f6b656e20616c7265616479206d696e746564000000006000830152602082019050919050565b60006129c5602483613604565b91507f4552433732313a207472616e7366657220746f20746865207a65726f2061646460008301527f72657373000000000000000000000000000000000000000000000000000000006020830152604082019050919050565b6000612a2b601983613604565b91507f4552433732313a20617070726f766520746f2063616c6c6572000000000000006000830152602082019050919050565b6000612a6b602c83613604565b91507f4552433732313a206f70657261746f7220717565727920666f72206e6f6e657860008301527f697374656e7420746f6b656e00000000000000000000000000000000000000006020830152604082019050919050565b6000612ad1600d83613615565b91507f3c2f746578743e3c2f7376673e000000000000000000000000000000000000006000830152600d82019050919050565b6000612b11603883613604565b91507f4552433732313a20617070726f76652063616c6c6572206973206e6f74206f7760008301527f6e6572206e6f7220617070726f76656420666f7220616c6c00000000000000006020830152604082019050919050565b6000612b77602a83613604565b91507f4552433732313a2062616c616e636520717565727920666f7220746865207a6560008301527f726f2061646472657373000000000000000000000000000000000000000000006020830152604082019050919050565b6000612bdd602983613604565b91507f4552433732313a206f776e657220717565727920666f72206e6f6e657869737460008301527f656e7420746f6b656e00000000000000000000000000000000000000000000006020830152604082019050919050565b6000612c43602e83613604565b91507f45524337323155524953746f726167653a2055524920736574206f66206e6f6e60008301527f6578697374656e7420746f6b656e0000000000000000000000000000000000006020830152604082019050919050565b6000612ca9606983613615565b91507f222c20226465736372697074696f6e223a20224120646566656e6465722c206d60008301527f69646669656c6420616e6420666f727761726420736f6363657220706c61796560208301527f722e222c2022696d616765223a2022646174613a696d6167652f7376672b786d60408301527f6c3b6261736536342c00000000000000000000000000000000000000000000006060830152606982019050919050565b6000612d5b600283613615565b91507f227d0000000000000000000000000000000000000000000000000000000000006000830152600282019050919050565b6000612d9b602083613604565b91507f4552433732313a206d696e7420746f20746865207a65726f20616464726573736000830152602082019050919050565b6000612ddb603183613604565b91507f45524337323155524953746f726167653a2055524920717565727920666f722060008301527f6e6f6e6578697374656e7420746f6b656e0000000000000000000000000000006020830152604082019050919050565b6000612e41602c83613604565b91507f4552433732313a20617070726f76656420717565727920666f72206e6f6e657860008301527f697374656e7420746f6b656e00000000000000000000000000000000000000006020830152604082019050919050565b6000612ea7602983613604565b91507f4552433732313a207472616e73666572206f6620746f6b656e2074686174206960008301527f73206e6f74206f776e00000000000000000000000000000000000000000000006020830152604082019050919050565b6000612f0d602f83613604565b91507f4552433732314d657461646174613a2055524920717565727920666f72206e6f60008301527f6e6578697374656e7420746f6b656e00000000000000000000000000000000006020830152604082019050919050565b6000612f73600a83613615565b91507f7b226e616d65223a2022000000000000000000000000000000000000000000006000830152600a82019050919050565b6000612fb3602183613604565b91507f4552433732313a20617070726f76616c20746f2063757272656e74206f776e6560008301527f72000000000000000000000000000000000000000000000000000000000000006020830152604082019050919050565b6000613019601d83613615565b91507f646174613a6170706c69636174696f6e2f6a736f6e3b6261736536342c0000006000830152601d82019050919050565b6000613059603183613604565b91507f4552433732313a207472616e736665722063616c6c6572206973206e6f74206f60008301527f776e6572206e6f7220617070726f7665640000000000000000000000000000006020830152604082019050919050565b6130bb8161379f565b82525050565b60006130cd8284612862565b915081905092915050565b60006130e48285612862565b91506130f08284612862565b91508190509392505050565b60006131088286612862565b91506131148285612862565b91506131208284612862565b9150819050949350505050565b60006131398288612862565b91506131458287612862565b91506131518286612862565b915061315d8285612862565b91506131698284612862565b91508190509695505050505050565b60006131848285612893565b91506131908284612862565b915061319b82612ac4565b91508190509392505050565b60006131b282612f66565b91506131be8285612862565b91506131c982612c9c565b91506131d58284612862565b91506131e082612d4e565b91508190509392505050565b60006131f78261300c565b91506132038284612862565b915081905092915050565b600060208201905061322360008301846127d2565b92915050565b600060808201905061323e60008301876127d2565b61324b60208301866127d2565b61325860408301856130b2565b818103606083015261326a81846127f0565b905095945050505050565b600060208201905061328a60008301846127e1565b92915050565b600060208201905081810360008301526132aa8184612829565b905092915050565b600060608201905081810360008301526132cc8186612829565b90506132db60208301856130b2565b6132e860408301846127d2565b949350505050565b6000602082019050818103600083015261330981612912565b9050919050565b6000602082019050818103600083015261332981612978565b9050919050565b60006020820190508181036000830152613349816129b8565b9050919050565b6000602082019050818103600083015261336981612a1e565b9050919050565b6000602082019050818103600083015261338981612a5e565b9050919050565b600060208201905081810360008301526133a981612b04565b9050919050565b600060208201905081810360008301526133c981612b6a565b9050919050565b600060208201905081810360008301526133e981612bd0565b9050919050565b6000602082019050818103600083015261340981612c36565b9050919050565b6000602082019050818103600083015261342981612d8e565b9050919050565b6000602082019050818103600083015261344981612dce565b9050919050565b6000602082019050818103600083015261346981612e34565b9050919050565b6000602082019050818103600083015261348981612e9a565b9050919050565b600060208201905081810360008301526134a981612f00565b9050919050565b600060208201905081810360008301526134c981612fa6565b9050919050565b600060208201905081810360008301526134e98161304c565b9050919050565b600060208201905061350560008301846130b2565b92915050565b6000604051905081810181811067ffffffffffffffff8211171561353257613531613924565b5b8060405250919050565b600067ffffffffffffffff82111561355757613556613924565b5b602082029050602081019050919050565b600067ffffffffffffffff82111561358357613582613924565b5b601f19601f8301169050602081019050919050565b600067ffffffffffffffff8211156135b3576135b2613924565b5b601f19601f8301169050602081019050919050565b60008190508160005260206000209050919050565b600081519050919050565b600081519050919050565b600082825260208201905092915050565b600082825260208201905092915050565b600081905092915050565b600061362b8261379f565b91506136368361379f565b9250827fffffffffffffffffffffffffffffffffffffffffffffffffffffffffffffffff0382111561366b5761366a613897565b5b828201905092915050565b60006136818261379f565b915061368c8361379f565b92508261369c5761369b6138c6565b5b828204905092915050565b60006136b28261379f565b91506136bd8361379f565b9250817fffffffffffffffffffffffffffffffffffffffffffffffffffffffffffffffff04831182151516156136f6576136f5613897565b5b828202905092915050565b600061370c8261379f565b91506137178361379f565b92508282101561372a57613729613897565b5b828203905092915050565b60006137408261377f565b9050919050565b60008115159050919050565b60007fffffffff0000000000000000000000000000000000000000000000000000000082169050919050565b600073ffffffffffffffffffffffffffffffffffffffff82169050919050565b6000819050919050565b82818337600083830152505050565b60005b838110156137d65780820151818401526020810190506137bb565b838111156137e5576000848401525b50505050565b6000600282049050600182168061380357607f821691505b60208210811415613817576138166138f5565b5b50919050565b60006138288261379f565b91507fffffffffffffffffffffffffffffffffffffffffffffffffffffffffffffffff82141561385b5761385a613897565b5b600182019050919050565b60006138718261379f565b915061387c8361379f565b92508261388c5761388b6138c6565b5b828206905092915050565b7f4e487b7100000000000000000000000000000000000000000000000000000000600052601160045260246000fd5b7f4e487b7100000000000000000000000000000000000000000000000000000000600052601260045260246000fd5b7f4e487b7100000000000000000000000000000000000000000000000000000000600052602260045260246000fd5b7f4e487b7100000000000000000000000000000000000000000000000000000000600052604160045260246000fd5b6000601f19601f8301169050919050565b61396d81613735565b811461397857600080fd5b50565b61398481613747565b811461398f57600080fd5b50565b61399b81613753565b81146139a657600080fd5b50565b6139b28161379f565b81146139bd57600080fd5b5056fe416e204e465420772f20494420257320686173206265656e206d696e74656420746f2025734142434445464748494a4b4c4d4e4f505152535455565758595a6162636465666768696a6b6c6d6e6f707172737475767778797a303132333435363738392b2fa26469706673582212209d80e82dc69e4ebcefa8714b5477f0aaf79c7dc9503f4dfad65ab4e7b632df7764736f6c634300080000333c73766720786d6c6e733d27687474703a2f2f7777772e77332e6f72672f323030302f73766727207072657365727665417370656374526174696f3d27784d696e594d696e206d656574272076696577426f783d273020302033353020333530273e3c7374796c653e2e62617365207b2066696c6c3a2077686974653b20666f6e742d66616d696c793a2073657269663b20666f6e742d73697a653a20323470783b207d3c2f7374796c653e3c726563742077696474683d273130302527206865696768743d2731303025272066696c6c3d27626c61636b27202f3e3c7465787420783d273530252720793d273530252720636c6173733d27626173652720646f6d696e616e742d626173656c696e653d276d6964646c652720746578742d616e63686f723d276d6964646c65273e",
  "linkReferences": {},
  "deployedLinkReferences": {}
}