{
  "_format": "hh-sol-artifact-1",
  "contractName": "MyRandomNFT",
  "sourceName": "contracts/MyRandomNFT.sol",
  "abi": [
    {
      "inputs": [],
      "stateMutability": "nonpayable",
      "type": "constructor"
    },
    {
      "anonymous": false,
      "inputs": [
        {
          "indexed": true,
          "internalType": "address",
          "name": "owner",
          "type": "address"
        },
        {
          "indexed": true,
          "internalType": "address",
          "name": "approved",
          "type": "address"
        },
        {
          "indexed": true,
          "internalType": "uint256",
          "name": "tokenId",
          "type": "uint256"
        }
      ],
      "name": "Approval",
      "type": "event"
    },
    {
      "anonymous": false,
      "inputs": [
        {
          "indexed": true,
          "internalType": "address",
          "name": "owner",
          "type": "address"
        },
        {
          "indexed": true,
          "internalType": "address",
          "name": "operator",
          "type": "address"
        },
        {
          "indexed": false,
          "internalType": "bool",
          "name": "approved",
          "type": "bool"
        }
      ],
      "name": "ApprovalForAll",
      "type": "event"
    },
    {
      "anonymous": false,
      "inputs": [
        {
          "indexed": false,
          "internalType": "address",
          "name": "sender",
          "type": "address"
        },
        {
          "indexed": false,
          "internalType": "uint256",
          "name": "tokenId",
          "type": "uint256"
        }
      ],
      "name": "NewRandomNFTMinted",
      "type": "event"
    },
    {
      "anonymous": false,
      "inputs": [
        {
          "indexed": true,
          "internalType": "address",
          "name": "from",
          "type": "address"
        },
        {
          "indexed": true,
          "internalType": "address",
          "name": "to",
          "type": "address"
        },
        {
          "indexed": true,
          "internalType": "uint256",
          "name": "tokenId",
          "type": "uint256"
        }
      ],
      "name": "Transfer",
      "type": "event"
    },
    {
      "inputs": [
        {
          "internalType": "address",
          "name": "to",
          "type": "address"
        },
        {
          "internalType": "uint256",
          "name": "tokenId",
          "type": "uint256"
        }
      ],
      "name": "approve",
      "outputs": [],
      "stateMutability": "nonpayable",
      "type": "function"
    },
    {
      "inputs": [
        {
          "internalType": "address",
          "name": "owner",
          "type": "address"
        }
      ],
      "name": "balanceOf",
      "outputs": [
        {
          "internalType": "uint256",
          "name": "",
          "type": "uint256"
        }
      ],
      "stateMutability": "view",
      "type": "function"
    },
    {
      "inputs": [
        {
          "internalType": "uint256",
          "name": "tokenId",
          "type": "uint256"
        }
      ],
      "name": "getApproved",
      "outputs": [
        {
          "internalType": "address",
          "name": "",
          "type": "address"
        }
      ],
      "stateMutability": "view",
      "type": "function"
    },
    {
      "inputs": [
        {
          "internalType": "address",
          "name": "owner",
          "type": "address"
        },
        {
          "internalType": "address",
          "name": "operator",
          "type": "address"
        }
      ],
      "name": "isApprovedForAll",
      "outputs": [
        {
          "internalType": "bool",
          "name": "",
          "type": "bool"
        }
      ],
      "stateMutability": "view",
      "type": "function"
    },
    {
      "inputs": [],
      "name": "makeARandomNFT",
      "outputs": [],
      "stateMutability": "nonpayable",
      "type": "function"
    },
    {
      "inputs": [],
      "name": "name",
      "outputs": [
        {
          "internalType": "string",
          "name": "",
          "type": "string"
        }
      ],
      "stateMutability": "view",
      "type": "function"
    },
    {
      "inputs": [
        {
          "internalType": "uint256",
          "name": "tokenId",
          "type": "uint256"
        }
      ],
      "name": "ownerOf",
      "outputs": [
        {
          "internalType": "address",
          "name": "",
          "type": "address"
        }
      ],
      "stateMutability": "view",
      "type": "function"
    },
    {
      "inputs": [
        {
          "internalType": "uint256",
          "name": "tokenId",
          "type": "uint256"
        }
      ],
      "name": "pickRandomFirstWordFromGeneric",
      "outputs": [
        {
          "internalType": "string",
          "name": "",
          "type": "string"
        }
      ],
      "stateMutability": "view",
      "type": "function"
    },
    {
      "inputs": [
        {
          "internalType": "uint256",
          "name": "tokenId",
          "type": "uint256"
        },
        {
          "internalType": "string[]",
          "name": "collection",
          "type": "string[]"
        },
        {
          "internalType": "string",
          "name": "seed",
          "type": "string"
        }
      ],
      "name": "pickRandomFromCollection",
      "outputs": [
        {
          "internalType": "string",
          "name": "",
          "type": "string"
        }
      ],
      "stateMutability": "view",
      "type": "function"
    },
    {
      "inputs": [
        {
          "internalType": "uint256",
          "name": "tokenId",
          "type": "uint256"
        }
      ],
      "name": "pickRandomSecondWordFromGeneric",
      "outputs": [
        {
          "internalType": "string",
          "name": "",
          "type": "string"
        }
      ],
      "stateMutability": "view",
      "type": "function"
    },
    {
      "inputs": [
        {
          "internalType": "uint256",
          "name": "tokenId",
          "type": "uint256"
        }
      ],
      "name": "pickRandomThirdWordFromGeneric",
      "outputs": [
        {
          "internalType": "string",
          "name": "",
          "type": "string"
        }
      ],
      "stateMutability": "view",
      "type": "function"
    },
    {
      "inputs": [
        {
          "internalType": "address",
          "name": "from",
          "type": "address"
        },
        {
          "internalType": "address",
          "name": "to",
          "type": "address"
        },
        {
          "internalType": "uint256",
          "name": "tokenId",
          "type": "uint256"
        }
      ],
      "name": "safeTransferFrom",
      "outputs": [],
      "stateMutability": "nonpayable",
      "type": "function"
    },
    {
      "inputs": [
        {
          "internalType": "address",
          "name": "from",
          "type": "address"
        },
        {
          "internalType": "address",
          "name": "to",
          "type": "address"
        },
        {
          "internalType": "uint256",
          "name": "tokenId",
          "type": "uint256"
        },
        {
          "internalType": "bytes",
          "name": "_data",
          "type": "bytes"
        }
      ],
      "name": "safeTransferFrom",
      "outputs": [],
      "stateMutability": "nonpayable",
      "type": "function"
    },
    {
      "inputs": [
        {
          "internalType": "address",
          "name": "operator",
          "type": "address"
        },
        {
          "internalType": "bool",
          "name": "approved",
          "type": "bool"
        }
      ],
      "name": "setApprovalForAll",
      "outputs": [],
      "stateMutability": "nonpayable",
      "type": "function"
    },
    {
      "inputs": [
        {
          "internalType": "bytes4",
          "name": "interfaceId",
          "type": "bytes4"
        }
      ],
      "name": "supportsInterface",
      "outputs": [
        {
          "internalType": "bool",
          "name": "",
          "type": "bool"
        }
      ],
      "stateMutability": "view",
      "type": "function"
    },
    {
      "inputs": [],
      "name": "symbol",
      "outputs": [
        {
          "internalType": "string",
          "name": "",
          "type": "string"
        }
      ],
      "stateMutability": "view",
      "type": "function"
    },
    {
      "inputs": [
        {
          "internalType": "uint256",
          "name": "tokenId",
          "type": "uint256"
        }
      ],
      "name": "tokenURI",
      "outputs": [
        {
          "internalType": "string",
          "name": "",
          "type": "string"
        }
      ],
      "stateMutability": "view",
      "type": "function"
    },
    {
      "inputs": [
        {
          "internalType": "address",
          "name": "from",
          "type": "address"
        },
        {
          "internalType": "address",
          "name": "to",
          "type": "address"
        },
        {
          "internalType": "uint256",
          "name": "tokenId",
          "type": "uint256"
        }
      ],
      "name": "transferFrom",
      "outputs": [],
      "stateMutability": "nonpayable",
      "type": "function"
    }
  ],
  "bytecode": "0x608060405260405180610100016040528060d38152602001620050f860d391396008908051906020019062000036929190620011dd565b50604051806080016040528060568152602001620051cb605691396009908051906020019062000068929190620011dd565b506040518060c001604052806040518060400160405280600381526020017f726564000000000000000000000000000000000000000000000000000000000081525081526020016040518060400160405280600781526020017f233038433241380000000000000000000000000000000000000000000000000081525081526020016040518060400160405280600581526020017f626c61636b00000000000000000000000000000000000000000000000000000081525081526020016040518060400160405280600681526020017f79656c6c6f77000000000000000000000000000000000000000000000000000081525081526020016040518060400160405280600481526020017f626c75650000000000000000000000000000000000000000000000000000000081525081526020016040518060400160405280600581526020017f677265656e000000000000000000000000000000000000000000000000000000815250815250600a906006620001e69291906200126e565b506040518061028001604052806040518060400160405280600681526020017f546f6469626f000000000000000000000000000000000000000000000000000081525081526020016040518060400160405280600781526020017f50616c6c6f69730000000000000000000000000000000000000000000000000081525081526020016040518060400160405280600681526020017f477261646974000000000000000000000000000000000000000000000000000081525081526020016040518060400160405280600781526020017f44656e617965720000000000000000000000000000000000000000000000000081525081526020016040518060400160405280600681526020017f53616c696261000000000000000000000000000000000000000000000000000081525081526020016040518060400160405280600a81526020017f4d61727175696e686f730000000000000000000000000000000000000000000081525081526020016040518060400160405280600481526020017f52616d690000000000000000000000000000000000000000000000000000000081525081526020016040518060400160405280600681526020017f416d61646f75000000000000000000000000000000000000000000000000000081525081526020016040518060400160405280600781526020017f4c61706f7274650000000000000000000000000000000000000000000000000081525081526020016040518060400160405280600481526020017f466165730000000000000000000000000000000000000000000000000000000081525081526020016040518060400160405280600781526020017f4d6564696f75620000000000000000000000000000000000000000000000000081525081526020016040518060400160405280600a81526020017f486f756e746f6e646a690000000000000000000000000000000000000000000081525081526020016040518060400160405280600481526020017f436163690000000000000000000000000000000000000000000000000000000081525081526020016040518060400160405280600681526020017f416775657264000000000000000000000000000000000000000000000000000081525081526020016040518060400160405280600a81526020017f43686172646f6e6e65740000000000000000000000000000000000000000000081525081526020016040518060400160405280600581526020017f466f6e746500000000000000000000000000000000000000000000000000000081525081526020016040518060400160405280600781526020017f4d616e67616c610000000000000000000000000000000000000000000000000081525081526020016040518060400160405280600781526020017f536f75717565740000000000000000000000000000000000000000000000000081525081526020016040518060400160405280600681526020017f446973617369000000000000000000000000000000000000000000000000000081525081526020016040518060400160405280600681526020017f54686f6d61730000000000000000000000000000000000000000000000000000815250815250600b9060146200069f929190620012d5565b506040518061028001604052806040518060400160405280600881526020017f426f7564616f756900000000000000000000000000000000000000000000000081525081526020016040518060400160405280600481526020017f426c61730000000000000000000000000000000000000000000000000000000081525081526020016040518060400160405280600681526020017f4b616b757461000000000000000000000000000000000000000000000000000081525081526020016040518060400160405280600581526020017f416f75617200000000000000000000000000000000000000000000000000000081525081526020016040518060400160405280600981526020017f4775656e646f757a69000000000000000000000000000000000000000000000081525081526020016040518060400160405280600781526020017f566572726174690000000000000000000000000000000000000000000000000081525081526020016040518060400160405280600a81526020017f43686176616c6572696e0000000000000000000000000000000000000000000081525081526020016040518060400160405280600781526020017f426f756c6179610000000000000000000000000000000000000000000000000081525081526020016040518060400160405280600a81526020017f4d6f6e636f6e647569740000000000000000000000000000000000000000000081525081526020016040518060400160405280600881526020017f4d6174757369776100000000000000000000000000000000000000000000000081525081526020016040518060400160405280600481526020017f41646c690000000000000000000000000000000000000000000000000000000081525081526020016040518060400160405280600781526020017f4761737469656e0000000000000000000000000000000000000000000000000081525081526020016040518060400160405280600981526020017f54686f6d6173736f6e000000000000000000000000000000000000000000000081525081526020016040518060400160405280600581526020017f4d616a657200000000000000000000000000000000000000000000000000000081525081526020016040518060400160405280600781526020017f486f6e6f7261740000000000000000000000000000000000000000000000000081525081526020016040518060400160405280600581526020017f42616d626100000000000000000000000000000000000000000000000000000081525081526020016040518060400160405280600981526020017f426f756465626f757a000000000000000000000000000000000000000000000081525081526020016040518060400160405280600681526020017f4d6f6c6c6574000000000000000000000000000000000000000000000000000081525081526020016040518060400160405280600481526020017f44696f700000000000000000000000000000000000000000000000000000000081525081526020016040518060400160405280600781526020017f46756c67696e6900000000000000000000000000000000000000000000000000815250815250600c90601462000b58929190620012d5565b506040518061028001604052806040518060400160405280600681526020017f476f75697269000000000000000000000000000000000000000000000000000081525081526020016040518060400160405280600581526020017f53696d6f6e00000000000000000000000000000000000000000000000000000081525081526020016040518060400160405280600a81526020017f4b616c696d75656e646f0000000000000000000000000000000000000000000081525081526020016040518060400160405280600781526020017f44656d62656c650000000000000000000000000000000000000000000000000081525081526020016040518060400160405280600581526020017f4d696c696b00000000000000000000000000000000000000000000000000000081525081526020016040518060400160405280600581526020017f4d6573736900000000000000000000000000000000000000000000000000000081525081526020016040518060400160405280600881526020017f546f757a6768617200000000000000000000000000000000000000000000000081525081526020016040518060400160405280600581526020017f4e69616e6500000000000000000000000000000000000000000000000000000081525081526020016040518060400160405280600781526020017f536f756d616e6f0000000000000000000000000000000000000000000000000081525081526020016040518060400160405280600781526020017f456b6974696b650000000000000000000000000000000000000000000000000081525081526020016040518060400160405280600581526020017f4877616e6700000000000000000000000000000000000000000000000000000081525081526020016040518060400160405280600481526020017f4261796f0000000000000000000000000000000000000000000000000000000081525081526020016040518060400160405280600781526020017f416a6f727175650000000000000000000000000000000000000000000000000081525081526020016040518060400160405280600781526020017f4c61626f7264650000000000000000000000000000000000000000000000000081525081526020016040518060400160405280600681526020017f4d6f756e6965000000000000000000000000000000000000000000000000000081525081526020016040518060400160405280600581526020017f446176696400000000000000000000000000000000000000000000000000000081525081526020016040518060400160405280600681526020017f4b68617a7269000000000000000000000000000000000000000000000000000081525081526020016040518060400160405280600481526020017f576168690000000000000000000000000000000000000000000000000000000081525081526020016040518060400160405280600781526020017f566f6c6c616e640000000000000000000000000000000000000000000000000081525081526020016040518060400160405280600781526020017f4261686f6b656e00000000000000000000000000000000000000000000000000815250815250600d90601462001011929190620012d5565b503480156200101f57600080fd5b506040518060400160405280600981526020017f5371756172654e465400000000000000000000000000000000000000000000008152506040518060400160405280600681526020017f53515541524500000000000000000000000000000000000000000000000000008152508160009080519060200190620010a4929190620011dd565b508060019080519060200190620010bd929190620011dd565b5050506200110b6040518060400160405280601e81526020017f54686973206973206d79204e465420636f6e74726163742e20576f61682100008152506200111160201b6200133d1760201c565b620014f6565b620011b1816040516024016200112891906200140a565b6040516020818303038152906040527f41304fac000000000000000000000000000000000000000000000000000000007bffffffffffffffffffffffffffffffffffffffffffffffffffffffff19166020820180517bffffffffffffffffffffffffffffffffffffffffffffffffffffffff8381831617835250505050620011b460201b60201c565b50565b60008151905060006a636f6e736f6c652e6c6f679050602083016000808483855afa5050505050565b828054620011eb9062001480565b90600052602060002090601f0160209004810192826200120f57600085556200125b565b82601f106200122a57805160ff19168380011785556200125b565b828001600101855582156200125b579182015b828111156200125a5782518255916020019190600101906200123d565b5b5090506200126a91906200133c565b5090565b828054828255906000526020600020908101928215620012c2579160200282015b82811115620012c1578251829080519060200190620012b0929190620011dd565b50916020019190600101906200128f565b5b509050620012d191906200135b565b5090565b82805482825590600052602060002090810192821562001329579160200282015b828111156200132857825182908051906020019062001317929190620011dd565b5091602001919060010190620012f6565b5b5090506200133891906200135b565b5090565b5b80821115620013575760008160009055506001016200133d565b5090565b5b808211156200137f576000818162001375919062001383565b506001016200135c565b5090565b508054620013919062001480565b6000825580601f10620013a55750620013c6565b601f016020900490600052602060002090810190620013c591906200133c565b5b50565b6000620013d6826200142e565b620013e2818562001439565b9350620013f48185602086016200144a565b620013ff81620014e5565b840191505092915050565b60006020820190508181036000830152620014268184620013c9565b905092915050565b600081519050919050565b600082825260208201905092915050565b60005b838110156200146a5780820151818401526020810190506200144d565b838111156200147a576000848401525b50505050565b600060028204905060018216806200149957607f821691505b60208210811415620014b057620014af620014b6565b5b50919050565b7f4e487b7100000000000000000000000000000000000000000000000000000000600052602260045260246000fd5b6000601f19601f8301169050919050565b613bf280620015066000396000f3fe608060405234801561001057600080fd5b50600436106101165760003560e01c806370a08231116100a2578063a5c35ad811610071578063a5c35ad8146102f1578063b88d4fde14610321578063beb2e05b1461033d578063c87b56dd1461036d578063e985e9c51461039d57610116565b806370a082311461025757806395d89b41146102875780639af84514146102a5578063a22cb465146102d557610116565b8063106c8dbf116100e9578063106c8dbf146101b557806323b872dd146101bf5780633a0416b3146101db57806342842e0e1461020b5780636352211e1461022757610116565b806301ffc9a71461011b57806306fdde031461014b578063081812fc14610169578063095ea7b314610199575b600080fd5b6101356004803603810190610130919061282c565b6103cd565b604051610142919061340c565b60405180910390f35b6101536104af565b6040516101609190613427565b60405180910390f35b610183600480360381019061017e919061287e565b610541565b604051610190919061337c565b60405180910390f35b6101b360048036038101906101ae91906127f0565b6105c6565b005b6101bd6106de565b005b6101d960048036038101906101d491906126ea565b610a65565b005b6101f560048036038101906101f0919061287e565b610ac5565b6040516102029190613427565b60405180910390f35b610225600480360381019061022091906126ea565b610bdf565b005b610241600480360381019061023c919061287e565b610bff565b60405161024e919061337c565b60405180910390f35b610271600480360381019061026c9190612685565b610cb1565b60405161027e9190613687565b60405180910390f35b61028f610d69565b60405161029c9190613427565b60405180910390f35b6102bf60048036038101906102ba91906128a7565b610dfb565b6040516102cc9190613427565b60405180910390f35b6102ef60048036038101906102ea91906127b4565b610eab565b005b61030b6004803603810190610306919061287e565b610ec1565b6040516103189190613427565b60405180910390f35b61033b60048036038101906103369190612739565b610fdb565b005b6103576004803603810190610352919061287e565b61103d565b6040516103649190613427565b60405180910390f35b6103876004803603810190610382919061287e565b611157565b6040516103949190613427565b60405180910390f35b6103b760048036038101906103b291906126ae565b6112a9565b6040516103c4919061340c565b60405180910390f35b60007f80ac58cd000000000000000000000000000000000000000000000000000000007bffffffffffffffffffffffffffffffffffffffffffffffffffffffff1916827bffffffffffffffffffffffffffffffffffffffffffffffffffffffff1916148061049857507f5b5e139f000000000000000000000000000000000000000000000000000000007bffffffffffffffffffffffffffffffffffffffffffffffffffffffff1916827bffffffffffffffffffffffffffffffffffffffffffffffffffffffff1916145b806104a857506104a7826113d6565b5b9050919050565b6060600080546104be90613982565b80601f01602080910402602001604051908101604052809291908181526020018280546104ea90613982565b80156105375780601f1061050c57610100808354040283529160200191610537565b820191906000526020600020905b81548152906001019060200180831161051a57829003601f168201915b5050505050905090565b600061054c82611440565b61058b576040517f08c379a0000000000000000000000000000000000000000000000000000000008152600401610582906135e7565b60405180910390fd5b6004600083815260200190815260200160002060009054906101000a900473ffffffffffffffffffffffffffffffffffffffff169050919050565b60006105d182610bff565b90508073ffffffffffffffffffffffffffffffffffffffff168373ffffffffffffffffffffffffffffffffffffffff161415610642576040517f08c379a000000000000000000000000000000000000000000000000000000000815260040161063990613647565b60405180910390fd5b8073ffffffffffffffffffffffffffffffffffffffff166106616114ac565b73ffffffffffffffffffffffffffffffffffffffff161480610690575061068f8161068a6114ac565b6112a9565b5b6106cf576040517f08c379a00000000000000000000000000000000000000000000000000000000081526004016106c690613527565b60405180910390fd5b6106d983836114b4565b505050565b60006106ea600761156d565b905060006106f78261103d565b9050600061070483610ec1565b9050600061071184610ac5565b9050600061082685600a805480602002602001604051908101604052809291908181526020016000905b828210156107e757838290600052602060002001805461075a90613982565b80601f016020809104026020016040519081016040528092919081815260200182805461078690613982565b80156107d35780601f106107a8576101008083540402835291602001916107d3565b820191906000526020600020905b8154815290600101906020018083116107b657829003601f168201915b50505050508152602001906001019061073b565b505050506040518060400160405280600581526020017f434f4c4f52000000000000000000000000000000000000000000000000000000815250610dfb565b9050600084848460405160200161083f93929190613250565b6040516020818303038152906040529050600060088360098460405160200161086b94939291906132cc565b60405160208183030381529060405290506108ba6040518060400160405280601581526020017f0a2d2d2d2d2d2d2d2d2d2d2d2d2d2d2d2d2d2d2d2d000000000000000000000081525061133d565b6108c38161133d565b6109016040518060400160405280601581526020017f2d2d2d2d2d2d2d2d2d2d2d2d2d2d2d2d2d2d2d2d0a000000000000000000000081525061133d565b6000610935836109108461157b565b604051602001610921929190613315565b60405160208183030381529060405261157b565b905060008160405160200161094a919061335a565b60405160208183030381529060405290506109996040518060400160405280601581526020017f0a2d2d2d2d2d2d2d2d2d2d2d2d2d2d2d2d2d2d2d2d000000000000000000000081525061133d565b6109a28161133d565b6109e06040518060400160405280601581526020017f2d2d2d2d2d2d2d2d2d2d2d2d2d2d2d2d2d2d2d2d0a000000000000000000000081525061133d565b6109ea338a611739565b6109f48982611757565b6109fe60076117cb565b610a21604051806060016040528060258152602001613b58602591398a336117e1565b7fda1c5ebd1a960536666627f80286b46cda8f466515875b771737d9d7ed3f34d7338a604051610a529291906133e3565b60405180910390a1505050505050505050565b610a76610a706114ac565b82611880565b610ab5576040517f08c379a0000000000000000000000000000000000000000000000000000000008152600401610aac90613667565b60405180910390fd5b610ac083838361195e565b505050565b6060610bd882600d805480602002602001604051908101604052809291908181526020016000905b82821015610b99578382906000526020600020018054610b0c90613982565b80601f0160208091040260200160405190810160405280929190818152602001828054610b3890613982565b8015610b855780601f10610b5a57610100808354040283529160200191610b85565b820191906000526020600020905b815481529060010190602001808311610b6857829003601f168201915b505050505081526020019060010190610aed565b505050506040518060400160405280600a81526020017f54484952445f574f524400000000000000000000000000000000000000000000815250610dfb565b9050919050565b610bfa83838360405180602001604052806000815250610fdb565b505050565b6000806002600084815260200190815260200160002060009054906101000a900473ffffffffffffffffffffffffffffffffffffffff169050600073ffffffffffffffffffffffffffffffffffffffff168173ffffffffffffffffffffffffffffffffffffffff161415610ca8576040517f08c379a0000000000000000000000000000000000000000000000000000000008152600401610c9f90613567565b60405180910390fd5b80915050919050565b60008073ffffffffffffffffffffffffffffffffffffffff168273ffffffffffffffffffffffffffffffffffffffff161415610d22576040517f08c379a0000000000000000000000000000000000000000000000000000000008152600401610d1990613547565b60405180910390fd5b600360008373ffffffffffffffffffffffffffffffffffffffff1673ffffffffffffffffffffffffffffffffffffffff168152602001908152602001600020549050919050565b606060018054610d7890613982565b80601f0160208091040260200160405190810160405280929190818152602001828054610da490613982565b8015610df15780601f10610dc657610100808354040283529160200191610df1565b820191906000526020600020905b815481529060010190602001808311610dd457829003601f168201915b5050505050905090565b60606000610e4f83610e0c87611bba565b610e1544611bba565b610e1e43611bba565b610e2742611bba565b604051602001610e3b959493929190613281565b604051602081830303815290604052611d67565b9050835181610e5e91906139fd565b9050838181518110610e99577f4e487b7100000000000000000000000000000000000000000000000000000000600052603260045260246000fd5b60200260200101519150509392505050565b610ebd610eb66114ac565b8383611d9a565b5050565b6060610fd482600c805480602002602001604051908101604052809291908181526020016000905b82821015610f95578382906000526020600020018054610f0890613982565b80601f0160208091040260200160405190810160405280929190818152602001828054610f3490613982565b8015610f815780601f10610f5657610100808354040283529160200191610f81565b820191906000526020600020905b815481529060010190602001808311610f6457829003601f168201915b505050505081526020019060010190610ee9565b505050506040518060400160405280600b81526020017f5345434f4e445f574f5244000000000000000000000000000000000000000000815250610dfb565b9050919050565b610fec610fe66114ac565b83611880565b61102b576040517f08c379a000000000000000000000000000000000000000000000000000000000815260040161102290613667565b60405180910390fd5b61103784848484611f07565b50505050565b606061115082600b805480602002602001604051908101604052809291908181526020016000905b8282101561111157838290600052602060002001805461108490613982565b80601f01602080910402602001604051908101604052809291908181526020018280546110b090613982565b80156110fd5780601f106110d2576101008083540402835291602001916110fd565b820191906000526020600020905b8154815290600101906020018083116110e057829003601f168201915b505050505081526020019060010190611065565b505050506040518060400160405280600a81526020017f46495253545f574f524400000000000000000000000000000000000000000000815250610dfb565b9050919050565b606061116282611440565b6111a1576040517f08c379a0000000000000000000000000000000000000000000000000000000008152600401611198906135c7565b60405180910390fd5b60006006600084815260200190815260200160002080546111c190613982565b80601f01602080910402602001604051908101604052809291908181526020018280546111ed90613982565b801561123a5780601f1061120f5761010080835404028352916020019161123a565b820191906000526020600020905b81548152906001019060200180831161121d57829003601f168201915b50505050509050600061124b611f63565b90506000815114156112615781925050506112a4565b60008251111561129657808260405160200161127e92919061322c565b604051602081830303815290604052925050506112a4565b61129f84611f7a565b925050505b919050565b6000600560008473ffffffffffffffffffffffffffffffffffffffff1673ffffffffffffffffffffffffffffffffffffffff16815260200190815260200160002060008373ffffffffffffffffffffffffffffffffffffffff1673ffffffffffffffffffffffffffffffffffffffff16815260200190815260200160002060009054906101000a900460ff16905092915050565b6113d3816040516024016113519190613427565b6040516020818303038152906040527f41304fac000000000000000000000000000000000000000000000000000000007bffffffffffffffffffffffffffffffffffffffffffffffffffffffff19166020820180517bffffffffffffffffffffffffffffffffffffffffffffffffffffffff8381831617835250505050612021565b50565b60007f01ffc9a7000000000000000000000000000000000000000000000000000000007bffffffffffffffffffffffffffffffffffffffffffffffffffffffff1916827bffffffffffffffffffffffffffffffffffffffffffffffffffffffff1916149050919050565b60008073ffffffffffffffffffffffffffffffffffffffff166002600084815260200190815260200160002060009054906101000a900473ffffffffffffffffffffffffffffffffffffffff1673ffffffffffffffffffffffffffffffffffffffff1614159050919050565b600033905090565b816004600083815260200190815260200160002060006101000a81548173ffffffffffffffffffffffffffffffffffffffff021916908373ffffffffffffffffffffffffffffffffffffffff160217905550808273ffffffffffffffffffffffffffffffffffffffff1661152783610bff565b73ffffffffffffffffffffffffffffffffffffffff167f8c5be1e5ebec7d5bd14f71427d1e84f3dd0314c0f7b2291e5b200ac8c7c3b92560405160405180910390a45050565b600081600001549050919050565b606060008251905060008114156115a45760405180602001604052806000815250915050611734565b600060036002836115b591906137b7565b6115bf919061380d565b60046115cb919061383e565b905060006020826115dc91906137b7565b67ffffffffffffffff81111561161b577f4e487b7100000000000000000000000000000000000000000000000000000000600052604160045260246000fd5b6040519080825280601f01601f19166020018201604052801561164d5781602001600182028036833780820191505090505b5090506000604051806060016040528060408152602001613b7d604091399050600181016020830160005b868110156116f15760038101905062ffffff818a015116603f8160121c168401518060081b905060ff603f83600c1c1686015116810190508060081b905060ff603f8360061c1686015116810190508060081b905060ff603f831686015116810190508060e01b90508084526004840193505050611678565b50600386066001811461170b576002811461171b57611726565b613d3d60f01b6002830352611726565b603d60f81b60018303525b508484525050819450505050505b919050565b61175382826040518060200160405280600081525061204a565b5050565b61176082611440565b61179f576040517f08c379a000000000000000000000000000000000000000000000000000000000815260040161179690613587565b60405180910390fd5b806006600084815260200190815260200160002090805190602001906117c6929190612422565b505050565b6001816000016000828254019250508190555050565b61187b8383836040516024016117f993929190613449565b6040516020818303038152906040527fe3849f79000000000000000000000000000000000000000000000000000000007bffffffffffffffffffffffffffffffffffffffffffffffffffffffff19166020820180517bffffffffffffffffffffffffffffffffffffffffffffffffffffffff8381831617835250505050612021565b505050565b600061188b82611440565b6118ca576040517f08c379a00000000000000000000000000000000000000000000000000000000081526004016118c190613507565b60405180910390fd5b60006118d583610bff565b90508073ffffffffffffffffffffffffffffffffffffffff168473ffffffffffffffffffffffffffffffffffffffff16148061194457508373ffffffffffffffffffffffffffffffffffffffff1661192c84610541565b73ffffffffffffffffffffffffffffffffffffffff16145b80611955575061195481856112a9565b5b91505092915050565b8273ffffffffffffffffffffffffffffffffffffffff1661197e82610bff565b73ffffffffffffffffffffffffffffffffffffffff16146119d4576040517f08c379a00000000000000000000000000000000000000000000000000000000081526004016119cb90613607565b60405180910390fd5b600073ffffffffffffffffffffffffffffffffffffffff168273ffffffffffffffffffffffffffffffffffffffff161415611a44576040517f08c379a0000000000000000000000000000000000000000000000000000000008152600401611a3b906134c7565b60405180910390fd5b611a4f8383836120a5565b611a5a6000826114b4565b6001600360008573ffffffffffffffffffffffffffffffffffffffff1673ffffffffffffffffffffffffffffffffffffffff1681526020019081526020016000206000828254611aaa9190613898565b925050819055506001600360008473ffffffffffffffffffffffffffffffffffffffff1673ffffffffffffffffffffffffffffffffffffffff1681526020019081526020016000206000828254611b0191906137b7565b92505081905550816002600083815260200190815260200160002060006101000a81548173ffffffffffffffffffffffffffffffffffffffff021916908373ffffffffffffffffffffffffffffffffffffffff160217905550808273ffffffffffffffffffffffffffffffffffffffff168473ffffffffffffffffffffffffffffffffffffffff167fddf252ad1be2c89b69c2b068fc378daa952ba7f163c4a11628f55a4df523b3ef60405160405180910390a4505050565b60606000821415611c02576040518060400160405280600181526020017f30000000000000000000000000000000000000000000000000000000000000008152509050611d62565b600082905060005b60008214611c34578080611c1d906139b4565b915050600a82611c2d919061380d565b9150611c0a565b60008167ffffffffffffffff811115611c76577f4e487b7100000000000000000000000000000000000000000000000000000000600052604160045260246000fd5b6040519080825280601f01601f191660200182016040528015611ca85781602001600182028036833780820191505090505b5090505b60008514611d5b57600182611cc19190613898565b9150600a85611cd091906139fd565b6030611cdc91906137b7565b60f81b818381518110611d18577f4e487b7100000000000000000000000000000000000000000000000000000000600052603260045260246000fd5b60200101907effffffffffffffffffffffffffffffffffffffffffffffffffffffffffffff1916908160001a905350600a85611d54919061380d565b9450611cac565b8093505050505b919050565b600081604051602001611d7a9190613215565b6040516020818303038152906040528051906020012060001c9050919050565b8173ffffffffffffffffffffffffffffffffffffffff168373ffffffffffffffffffffffffffffffffffffffff161415611e09576040517f08c379a0000000000000000000000000000000000000000000000000000000008152600401611e00906134e7565b60405180910390fd5b80600560008573ffffffffffffffffffffffffffffffffffffffff1673ffffffffffffffffffffffffffffffffffffffff16815260200190815260200160002060008473ffffffffffffffffffffffffffffffffffffffff1673ffffffffffffffffffffffffffffffffffffffff16815260200190815260200160002060006101000a81548160ff0219169083151502179055508173ffffffffffffffffffffffffffffffffffffffff168373ffffffffffffffffffffffffffffffffffffffff167f17307eab39ab6107e8899845ad3d59bd9653f200f220920489ca2b5937696c3183604051611efa919061340c565b60405180910390a3505050565b611f1284848461195e565b611f1e848484846120aa565b611f5d576040517f08c379a0000000000000000000000000000000000000000000000000000000008152600401611f5490613487565b60405180910390fd5b50505050565b606060405180602001604052806000815250905090565b6060611f8582611440565b611fc4576040517f08c379a0000000000000000000000000000000000000000000000000000000008152600401611fbb90613627565b60405180910390fd5b6000611fce611f63565b90506000815111611fee5760405180602001604052806000815250612019565b80611ff884611bba565b60405160200161200992919061322c565b6040516020818303038152906040525b915050919050565b60008151905060006a636f6e736f6c652e6c6f679050602083016000808483855afa5050505050565b6120548383612241565b61206160008484846120aa565b6120a0576040517f08c379a000000000000000000000000000000000000000000000000000000000815260040161209790613487565b60405180910390fd5b505050565b505050565b60006120cb8473ffffffffffffffffffffffffffffffffffffffff1661240f565b15612234578373ffffffffffffffffffffffffffffffffffffffff1663150b7a026120f46114ac565b8786866040518563ffffffff1660e01b81526004016121169493929190613397565b602060405180830381600087803b15801561213057600080fd5b505af192505050801561216157506040513d601f19601f8201168201806040525081019061215e9190612855565b60015b6121e4573d8060008114612191576040519150601f19603f3d011682016040523d82523d6000602084013e612196565b606091505b506000815114156121dc576040517f08c379a00000000000000000000000000000000000000000000000000000000081526004016121d390613487565b60405180910390fd5b805181602001fd5b63150b7a0260e01b7bffffffffffffffffffffffffffffffffffffffffffffffffffffffff1916817bffffffffffffffffffffffffffffffffffffffffffffffffffffffff191614915050612239565b600190505b949350505050565b600073ffffffffffffffffffffffffffffffffffffffff168273ffffffffffffffffffffffffffffffffffffffff1614156122b1576040517f08c379a00000000000000000000000000000000000000000000000000000000081526004016122a8906135a7565b60405180910390fd5b6122ba81611440565b156122fa576040517f08c379a00000000000000000000000000000000000000000000000000000000081526004016122f1906134a7565b60405180910390fd5b612306600083836120a5565b6001600360008473ffffffffffffffffffffffffffffffffffffffff1673ffffffffffffffffffffffffffffffffffffffff168152602001908152602001600020600082825461235691906137b7565b92505081905550816002600083815260200190815260200160002060006101000a81548173ffffffffffffffffffffffffffffffffffffffff021916908373ffffffffffffffffffffffffffffffffffffffff160217905550808273ffffffffffffffffffffffffffffffffffffffff16600073ffffffffffffffffffffffffffffffffffffffff167fddf252ad1be2c89b69c2b068fc378daa952ba7f163c4a11628f55a4df523b3ef60405160405180910390a45050565b600080823b905060008111915050919050565b82805461242e90613982565b90600052602060002090601f0160209004810192826124505760008555612497565b82601f1061246957805160ff1916838001178555612497565b82800160010185558215612497579182015b8281111561249657825182559160200191906001019061247b565b5b5090506124a491906124a8565b5090565b5b808211156124c15760008160009055506001016124a9565b5090565b60006124d86124d3846136d3565b6136a2565b9050808382526020820190508260005b8581101561251857813585016124fe8882612646565b8452602084019350602083019250506001810190506124e8565b5050509392505050565b6000612535612530846136ff565b6136a2565b90508281526020810184848401111561254d57600080fd5b612558848285613940565b509392505050565b600061257361256e8461372f565b6136a2565b90508281526020810184848401111561258b57600080fd5b612596848285613940565b509392505050565b6000813590506125ad81613afb565b92915050565b600082601f8301126125c457600080fd5b81356125d48482602086016124c5565b91505092915050565b6000813590506125ec81613b12565b92915050565b60008135905061260181613b29565b92915050565b60008151905061261681613b29565b92915050565b600082601f83011261262d57600080fd5b813561263d848260208601612522565b91505092915050565b600082601f83011261265757600080fd5b8135612667848260208601612560565b91505092915050565b60008135905061267f81613b40565b92915050565b60006020828403121561269757600080fd5b60006126a58482850161259e565b91505092915050565b600080604083850312156126c157600080fd5b60006126cf8582860161259e565b92505060206126e08582860161259e565b9150509250929050565b6000806000606084860312156126ff57600080fd5b600061270d8682870161259e565b935050602061271e8682870161259e565b925050604061272f86828701612670565b9150509250925092565b6000806000806080858703121561274f57600080fd5b600061275d8782880161259e565b945050602061276e8782880161259e565b935050604061277f87828801612670565b925050606085013567ffffffffffffffff81111561279c57600080fd5b6127a88782880161261c565b91505092959194509250565b600080604083850312156127c757600080fd5b60006127d58582860161259e565b92505060206127e6858286016125dd565b9150509250929050565b6000806040838503121561280357600080fd5b60006128118582860161259e565b925050602061282285828601612670565b9150509250929050565b60006020828403121561283e57600080fd5b600061284c848285016125f2565b91505092915050565b60006020828403121561286757600080fd5b600061287584828501612607565b91505092915050565b60006020828403121561289057600080fd5b600061289e84828501612670565b91505092915050565b6000806000606084860312156128bc57600080fd5b60006128ca86828701612670565b935050602084013567ffffffffffffffff8111156128e757600080fd5b6128f3868287016125b3565b925050604084013567ffffffffffffffff81111561291057600080fd5b61291c86828701612646565b9150509250925092565b61292f816138cc565b82525050565b61293e816138de565b82525050565b600061294f82613774565b612959818561378a565b935061296981856020860161394f565b61297281613aea565b840191505092915050565b60006129888261377f565b612992818561379b565b93506129a281856020860161394f565b6129ab81613aea565b840191505092915050565b60006129c18261377f565b6129cb81856137ac565b93506129db81856020860161394f565b80840191505092915050565b600081546129f481613982565b6129fe81866137ac565b94506001821660008114612a195760018114612a2a57612a5d565b60ff19831686528186019350612a5d565b612a338561375f565b60005b83811015612a5557815481890152600182019150602081019050612a36565b838801955050505b50505092915050565b6000612a7360328361379b565b91507f4552433732313a207472616e7366657220746f206e6f6e20455243373231526560008301527f63656976657220696d706c656d656e74657200000000000000000000000000006020830152604082019050919050565b6000612ad9601c8361379b565b91507f4552433732313a20746f6b656e20616c7265616479206d696e746564000000006000830152602082019050919050565b6000612b1960248361379b565b91507f4552433732313a207472616e7366657220746f20746865207a65726f2061646460008301527f72657373000000000000000000000000000000000000000000000000000000006020830152604082019050919050565b6000612b7f60198361379b565b91507f4552433732313a20617070726f766520746f2063616c6c6572000000000000006000830152602082019050919050565b6000612bbf602c8361379b565b91507f4552433732313a206f70657261746f7220717565727920666f72206e6f6e657860008301527f697374656e7420746f6b656e00000000000000000000000000000000000000006020830152604082019050919050565b6000612c25600d836137ac565b91507f3c2f746578743e3c2f7376673e000000000000000000000000000000000000006000830152600d82019050919050565b6000612c6560388361379b565b91507f4552433732313a20617070726f76652063616c6c6572206973206e6f74206f7760008301527f6e6572206e6f7220617070726f76656420666f7220616c6c00000000000000006020830152604082019050919050565b6000612ccb602a8361379b565b91507f4552433732313a2062616c616e636520717565727920666f7220746865207a6560008301527f726f2061646472657373000000000000000000000000000000000000000000006020830152604082019050919050565b6000612d3160298361379b565b91507f4552433732313a206f776e657220717565727920666f72206e6f6e657869737460008301527f656e7420746f6b656e00000000000000000000000000000000000000000000006020830152604082019050919050565b6000612d97602e8361379b565b91507f45524337323155524953746f726167653a2055524920736574206f66206e6f6e60008301527f6578697374656e7420746f6b656e0000000000000000000000000000000000006020830152604082019050919050565b6000612dfd6069836137ac565b91507f222c20226465736372697074696f6e223a20224120646566656e6465722c206d60008301527f69646669656c6420616e6420666f727761726420736f6363657220706c61796560208301527f722e222c2022696d616765223a2022646174613a696d6167652f7376672b786d60408301527f6c3b6261736536342c00000000000000000000000000000000000000000000006060830152606982019050919050565b6000612eaf6002836137ac565b91507f227d0000000000000000000000000000000000000000000000000000000000006000830152600282019050919050565b6000612eef60208361379b565b91507f4552433732313a206d696e7420746f20746865207a65726f20616464726573736000830152602082019050919050565b6000612f2f60318361379b565b91507f45524337323155524953746f726167653a2055524920717565727920666f722060008301527f6e6f6e6578697374656e7420746f6b656e0000000000000000000000000000006020830152604082019050919050565b6000612f95602c8361379b565b91507f4552433732313a20617070726f76656420717565727920666f72206e6f6e657860008301527f697374656e7420746f6b656e00000000000000000000000000000000000000006020830152604082019050919050565b6000612ffb60298361379b565b91507f4552433732313a207472616e73666572206f6620746f6b656e2074686174206960008301527f73206e6f74206f776e00000000000000000000000000000000000000000000006020830152604082019050919050565b6000613061602f8361379b565b91507f4552433732314d657461646174613a2055524920717565727920666f72206e6f60008301527f6e6578697374656e7420746f6b656e00000000000000000000000000000000006020830152604082019050919050565b60006130c7600a836137ac565b91507f7b226e616d65223a2022000000000000000000000000000000000000000000006000830152600a82019050919050565b600061310760218361379b565b91507f4552433732313a20617070726f76616c20746f2063757272656e74206f776e6560008301527f72000000000000000000000000000000000000000000000000000000000000006020830152604082019050919050565b600061316d601d836137ac565b91507f646174613a6170706c69636174696f6e2f6a736f6e3b6261736536342c0000006000830152601d82019050919050565b60006131ad60318361379b565b91507f4552433732313a207472616e736665722063616c6c6572206973206e6f74206f60008301527f776e6572206e6f7220617070726f7665640000000000000000000000000000006020830152604082019050919050565b61320f81613936565b82525050565b600061322182846129b6565b915081905092915050565b600061323882856129b6565b915061324482846129b6565b91508190509392505050565b600061325c82866129b6565b915061326882856129b6565b915061327482846129b6565b9150819050949350505050565b600061328d82886129b6565b915061329982876129b6565b91506132a582866129b6565b91506132b182856129b6565b91506132bd82846129b6565b91508190509695505050505050565b60006132d882876129e7565b91506132e482866129b6565b91506132f082856129e7565b91506132fc82846129b6565b915061330782612c18565b915081905095945050505050565b6000613320826130ba565b915061332c82856129b6565b915061333782612df0565b915061334382846129b6565b915061334e82612ea2565b91508190509392505050565b600061336582613160565b915061337182846129b6565b915081905092915050565b60006020820190506133916000830184612926565b92915050565b60006080820190506133ac6000830187612926565b6133b96020830186612926565b6133c66040830185613206565b81810360608301526133d88184612944565b905095945050505050565b60006040820190506133f86000830185612926565b6134056020830184613206565b9392505050565b60006020820190506134216000830184612935565b92915050565b60006020820190508181036000830152613441818461297d565b905092915050565b60006060820190508181036000830152613463818661297d565b90506134726020830185613206565b61347f6040830184612926565b949350505050565b600060208201905081810360008301526134a081612a66565b9050919050565b600060208201905081810360008301526134c081612acc565b9050919050565b600060208201905081810360008301526134e081612b0c565b9050919050565b6000602082019050818103600083015261350081612b72565b9050919050565b6000602082019050818103600083015261352081612bb2565b9050919050565b6000602082019050818103600083015261354081612c58565b9050919050565b6000602082019050818103600083015261356081612cbe565b9050919050565b6000602082019050818103600083015261358081612d24565b9050919050565b600060208201905081810360008301526135a081612d8a565b9050919050565b600060208201905081810360008301526135c081612ee2565b9050919050565b600060208201905081810360008301526135e081612f22565b9050919050565b6000602082019050818103600083015261360081612f88565b9050919050565b6000602082019050818103600083015261362081612fee565b9050919050565b6000602082019050818103600083015261364081613054565b9050919050565b60006020820190508181036000830152613660816130fa565b9050919050565b60006020820190508181036000830152613680816131a0565b9050919050565b600060208201905061369c6000830184613206565b92915050565b6000604051905081810181811067ffffffffffffffff821117156136c9576136c8613abb565b5b8060405250919050565b600067ffffffffffffffff8211156136ee576136ed613abb565b5b602082029050602081019050919050565b600067ffffffffffffffff82111561371a57613719613abb565b5b601f19601f8301169050602081019050919050565b600067ffffffffffffffff82111561374a57613749613abb565b5b601f19601f8301169050602081019050919050565b60008190508160005260206000209050919050565b600081519050919050565b600081519050919050565b600082825260208201905092915050565b600082825260208201905092915050565b600081905092915050565b60006137c282613936565b91506137cd83613936565b9250827fffffffffffffffffffffffffffffffffffffffffffffffffffffffffffffffff0382111561380257613801613a2e565b5b828201905092915050565b600061381882613936565b915061382383613936565b92508261383357613832613a5d565b5b828204905092915050565b600061384982613936565b915061385483613936565b9250817fffffffffffffffffffffffffffffffffffffffffffffffffffffffffffffffff048311821515161561388d5761388c613a2e565b5b828202905092915050565b60006138a382613936565b91506138ae83613936565b9250828210156138c1576138c0613a2e565b5b828203905092915050565b60006138d782613916565b9050919050565b60008115159050919050565b60007fffffffff0000000000000000000000000000000000000000000000000000000082169050919050565b600073ffffffffffffffffffffffffffffffffffffffff82169050919050565b6000819050919050565b82818337600083830152505050565b60005b8381101561396d578082015181840152602081019050613952565b8381111561397c576000848401525b50505050565b6000600282049050600182168061399a57607f821691505b602082108114156139ae576139ad613a8c565b5b50919050565b60006139bf82613936565b91507fffffffffffffffffffffffffffffffffffffffffffffffffffffffffffffffff8214156139f2576139f1613a2e565b5b600182019050919050565b6000613a0882613936565b9150613a1383613936565b925082613a2357613a22613a5d565b5b828206905092915050565b7f4e487b7100000000000000000000000000000000000000000000000000000000600052601160045260246000fd5b7f4e487b7100000000000000000000000000000000000000000000000000000000600052601260045260246000fd5b7f4e487b7100000000000000000000000000000000000000000000000000000000600052602260045260246000fd5b7f4e487b7100000000000000000000000000000000000000000000000000000000600052604160045260246000fd5b6000601f19601f8301169050919050565b613b04816138cc565b8114613b0f57600080fd5b50565b613b1b816138de565b8114613b2657600080fd5b50565b613b32816138ea565b8114613b3d57600080fd5b50565b613b4981613936565b8114613b5457600080fd5b5056fe416e204e465420772f20494420257320686173206265656e206d696e74656420746f2025734142434445464748494a4b4c4d4e4f505152535455565758595a6162636465666768696a6b6c6d6e6f707172737475767778797a303132333435363738392b2fa2646970667358221220ec76dcd3bf812ca5c59354c04ea6be5c3181a5ea655cadbb61ce03b982360a5064736f6c634300080000333c73766720786d6c6e733d27687474703a2f2f7777772e77332e6f72672f323030302f73766727207072657365727665417370656374526174696f3d27784d696e594d696e206d656574272076696577426f783d273020302033353020333530273e3c7374796c653e2e62617365207b2066696c6c3a2077686974653b20666f6e742d66616d696c793a2073657269663b20666f6e742d73697a653a20323470783b207d3c2f7374796c653e3c726563742077696474683d273130302527206865696768743d2731303025272066696c6c3d27272f3e3c7465787420783d273530252720793d273530252720636c6173733d27626173652720646f6d696e616e742d626173656c696e653d276d6964646c652720746578742d616e63686f723d276d6964646c65273e",
  "linkReferences": {},
  "deployedLinkReferences": {}
}