{
  "_format": "hh-sol-artifact-1",
  "contractName": "MyRandomNFT",
  "sourceName": "contracts/MyRandomNFT.sol",
  "abi": [
    {
      "inputs": [],
      "stateMutability": "nonpayable",
      "type": "constructor"
    },
    {
      "anonymous": false,
      "inputs": [
        {
          "indexed": true,
          "internalType": "address",
          "name": "owner",
          "type": "address"
        },
        {
          "indexed": true,
          "internalType": "address",
          "name": "approved",
          "type": "address"
        },
        {
          "indexed": true,
          "internalType": "uint256",
          "name": "tokenId",
          "type": "uint256"
        }
      ],
      "name": "Approval",
      "type": "event"
    },
    {
      "anonymous": false,
      "inputs": [
        {
          "indexed": true,
          "internalType": "address",
          "name": "owner",
          "type": "address"
        },
        {
          "indexed": true,
          "internalType": "address",
          "name": "operator",
          "type": "address"
        },
        {
          "indexed": false,
          "internalType": "bool",
          "name": "approved",
          "type": "bool"
        }
      ],
      "name": "ApprovalForAll",
      "type": "event"
    },
    {
      "anonymous": false,
      "inputs": [
        {
          "indexed": false,
          "internalType": "address",
          "name": "sender",
          "type": "address"
        },
        {
          "indexed": false,
          "internalType": "uint256",
          "name": "tokenId",
          "type": "uint256"
        }
      ],
      "name": "NewRandomNFTMinted",
      "type": "event"
    },
    {
      "anonymous": false,
      "inputs": [
        {
          "indexed": true,
          "internalType": "address",
          "name": "from",
          "type": "address"
        },
        {
          "indexed": true,
          "internalType": "address",
          "name": "to",
          "type": "address"
        },
        {
          "indexed": true,
          "internalType": "uint256",
          "name": "tokenId",
          "type": "uint256"
        }
      ],
      "name": "Transfer",
      "type": "event"
    },
    {
      "inputs": [
        {
          "internalType": "address",
          "name": "to",
          "type": "address"
        },
        {
          "internalType": "uint256",
          "name": "tokenId",
          "type": "uint256"
        }
      ],
      "name": "approve",
      "outputs": [],
      "stateMutability": "nonpayable",
      "type": "function"
    },
    {
      "inputs": [
        {
          "internalType": "address",
          "name": "owner",
          "type": "address"
        }
      ],
      "name": "balanceOf",
      "outputs": [
        {
          "internalType": "uint256",
          "name": "",
          "type": "uint256"
        }
      ],
      "stateMutability": "view",
      "type": "function"
    },
    {
      "inputs": [
        {
          "internalType": "uint256",
          "name": "tokenId",
          "type": "uint256"
        }
      ],
      "name": "getApproved",
      "outputs": [
        {
          "internalType": "address",
          "name": "",
          "type": "address"
        }
      ],
      "stateMutability": "view",
      "type": "function"
    },
    {
      "inputs": [],
      "name": "getCurrentTokenId",
      "outputs": [
        {
          "internalType": "uint256",
          "name": "",
          "type": "uint256"
        }
      ],
      "stateMutability": "view",
      "type": "function"
    },
    {
      "inputs": [],
      "name": "getMaxTokenId",
      "outputs": [
        {
          "internalType": "uint256",
          "name": "",
          "type": "uint256"
        }
      ],
      "stateMutability": "view",
      "type": "function"
    },
    {
      "inputs": [
        {
          "internalType": "address",
          "name": "owner",
          "type": "address"
        },
        {
          "internalType": "address",
          "name": "operator",
          "type": "address"
        }
      ],
      "name": "isApprovedForAll",
      "outputs": [
        {
          "internalType": "bool",
          "name": "",
          "type": "bool"
        }
      ],
      "stateMutability": "view",
      "type": "function"
    },
    {
      "inputs": [],
      "name": "makeARandomNFT",
      "outputs": [],
      "stateMutability": "nonpayable",
      "type": "function"
    },
    {
      "inputs": [],
      "name": "name",
      "outputs": [
        {
          "internalType": "string",
          "name": "",
          "type": "string"
        }
      ],
      "stateMutability": "view",
      "type": "function"
    },
    {
      "inputs": [
        {
          "internalType": "uint256",
          "name": "tokenId",
          "type": "uint256"
        }
      ],
      "name": "ownerOf",
      "outputs": [
        {
          "internalType": "address",
          "name": "",
          "type": "address"
        }
      ],
      "stateMutability": "view",
      "type": "function"
    },
    {
      "inputs": [
        {
          "internalType": "uint256",
          "name": "tokenId",
          "type": "uint256"
        }
      ],
      "name": "pickRandomFirstWordFromGeneric",
      "outputs": [
        {
          "internalType": "string",
          "name": "",
          "type": "string"
        }
      ],
      "stateMutability": "view",
      "type": "function"
    },
    {
      "inputs": [
        {
          "internalType": "uint256",
          "name": "tokenId",
          "type": "uint256"
        },
        {
          "internalType": "string[]",
          "name": "collection",
          "type": "string[]"
        },
        {
          "internalType": "string",
          "name": "seed",
          "type": "string"
        }
      ],
      "name": "pickRandomFromCollection",
      "outputs": [
        {
          "internalType": "string",
          "name": "",
          "type": "string"
        }
      ],
      "stateMutability": "view",
      "type": "function"
    },
    {
      "inputs": [
        {
          "internalType": "uint256",
          "name": "tokenId",
          "type": "uint256"
        }
      ],
      "name": "pickRandomSecondWordFromGeneric",
      "outputs": [
        {
          "internalType": "string",
          "name": "",
          "type": "string"
        }
      ],
      "stateMutability": "view",
      "type": "function"
    },
    {
      "inputs": [
        {
          "internalType": "uint256",
          "name": "tokenId",
          "type": "uint256"
        }
      ],
      "name": "pickRandomThirdWordFromGeneric",
      "outputs": [
        {
          "internalType": "string",
          "name": "",
          "type": "string"
        }
      ],
      "stateMutability": "view",
      "type": "function"
    },
    {
      "inputs": [
        {
          "internalType": "address",
          "name": "from",
          "type": "address"
        },
        {
          "internalType": "address",
          "name": "to",
          "type": "address"
        },
        {
          "internalType": "uint256",
          "name": "tokenId",
          "type": "uint256"
        }
      ],
      "name": "safeTransferFrom",
      "outputs": [],
      "stateMutability": "nonpayable",
      "type": "function"
    },
    {
      "inputs": [
        {
          "internalType": "address",
          "name": "from",
          "type": "address"
        },
        {
          "internalType": "address",
          "name": "to",
          "type": "address"
        },
        {
          "internalType": "uint256",
          "name": "tokenId",
          "type": "uint256"
        },
        {
          "internalType": "bytes",
          "name": "_data",
          "type": "bytes"
        }
      ],
      "name": "safeTransferFrom",
      "outputs": [],
      "stateMutability": "nonpayable",
      "type": "function"
    },
    {
      "inputs": [
        {
          "internalType": "address",
          "name": "operator",
          "type": "address"
        },
        {
          "internalType": "bool",
          "name": "approved",
          "type": "bool"
        }
      ],
      "name": "setApprovalForAll",
      "outputs": [],
      "stateMutability": "nonpayable",
      "type": "function"
    },
    {
      "inputs": [
        {
          "internalType": "bytes4",
          "name": "interfaceId",
          "type": "bytes4"
        }
      ],
      "name": "supportsInterface",
      "outputs": [
        {
          "internalType": "bool",
          "name": "",
          "type": "bool"
        }
      ],
      "stateMutability": "view",
      "type": "function"
    },
    {
      "inputs": [],
      "name": "symbol",
      "outputs": [
        {
          "internalType": "string",
          "name": "",
          "type": "string"
        }
      ],
      "stateMutability": "view",
      "type": "function"
    },
    {
      "inputs": [
        {
          "internalType": "uint256",
          "name": "tokenId",
          "type": "uint256"
        }
      ],
      "name": "tokenURI",
      "outputs": [
        {
          "internalType": "string",
          "name": "",
          "type": "string"
        }
      ],
      "stateMutability": "view",
      "type": "function"
    },
    {
      "inputs": [
        {
          "internalType": "address",
          "name": "from",
          "type": "address"
        },
        {
          "internalType": "address",
          "name": "to",
          "type": "address"
        },
        {
          "internalType": "uint256",
          "name": "tokenId",
          "type": "uint256"
        }
      ],
      "name": "transferFrom",
      "outputs": [],
      "stateMutability": "nonpayable",
      "type": "function"
    }
  ],
  "bytecode": "0x6080604052600360085560405180610100016040528060d38152602001620052a860d39139600990805190602001906200003b929190620011e2565b506040518060800160405280605681526020016200537b60569139600a90805190602001906200006d929190620011e2565b506040518060c001604052806040518060400160405280600381526020017f726564000000000000000000000000000000000000000000000000000000000081525081526020016040518060400160405280600781526020017f233038433241380000000000000000000000000000000000000000000000000081525081526020016040518060400160405280600581526020017f626c61636b00000000000000000000000000000000000000000000000000000081525081526020016040518060400160405280600681526020017f79656c6c6f77000000000000000000000000000000000000000000000000000081525081526020016040518060400160405280600481526020017f626c75650000000000000000000000000000000000000000000000000000000081525081526020016040518060400160405280600581526020017f677265656e000000000000000000000000000000000000000000000000000000815250815250600b906006620001eb92919062001273565b506040518061028001604052806040518060400160405280600681526020017f546f6469626f000000000000000000000000000000000000000000000000000081525081526020016040518060400160405280600781526020017f50616c6c6f69730000000000000000000000000000000000000000000000000081525081526020016040518060400160405280600681526020017f477261646974000000000000000000000000000000000000000000000000000081525081526020016040518060400160405280600781526020017f44656e617965720000000000000000000000000000000000000000000000000081525081526020016040518060400160405280600681526020017f53616c696261000000000000000000000000000000000000000000000000000081525081526020016040518060400160405280600a81526020017f4d61727175696e686f730000000000000000000000000000000000000000000081525081526020016040518060400160405280600481526020017f52616d690000000000000000000000000000000000000000000000000000000081525081526020016040518060400160405280600681526020017f416d61646f75000000000000000000000000000000000000000000000000000081525081526020016040518060400160405280600781526020017f4c61706f7274650000000000000000000000000000000000000000000000000081525081526020016040518060400160405280600481526020017f466165730000000000000000000000000000000000000000000000000000000081525081526020016040518060400160405280600781526020017f4d6564696f75620000000000000000000000000000000000000000000000000081525081526020016040518060400160405280600a81526020017f486f756e746f6e646a690000000000000000000000000000000000000000000081525081526020016040518060400160405280600481526020017f436163690000000000000000000000000000000000000000000000000000000081525081526020016040518060400160405280600681526020017f416775657264000000000000000000000000000000000000000000000000000081525081526020016040518060400160405280600a81526020017f43686172646f6e6e65740000000000000000000000000000000000000000000081525081526020016040518060400160405280600581526020017f466f6e746500000000000000000000000000000000000000000000000000000081525081526020016040518060400160405280600781526020017f4d616e67616c610000000000000000000000000000000000000000000000000081525081526020016040518060400160405280600781526020017f536f75717565740000000000000000000000000000000000000000000000000081525081526020016040518060400160405280600681526020017f446973617369000000000000000000000000000000000000000000000000000081525081526020016040518060400160405280600681526020017f54686f6d61730000000000000000000000000000000000000000000000000000815250815250600c906014620006a4929190620012da565b506040518061028001604052806040518060400160405280600881526020017f426f7564616f756900000000000000000000000000000000000000000000000081525081526020016040518060400160405280600481526020017f426c61730000000000000000000000000000000000000000000000000000000081525081526020016040518060400160405280600681526020017f4b616b757461000000000000000000000000000000000000000000000000000081525081526020016040518060400160405280600581526020017f416f75617200000000000000000000000000000000000000000000000000000081525081526020016040518060400160405280600981526020017f4775656e646f757a69000000000000000000000000000000000000000000000081525081526020016040518060400160405280600781526020017f566572726174690000000000000000000000000000000000000000000000000081525081526020016040518060400160405280600a81526020017f43686176616c6572696e0000000000000000000000000000000000000000000081525081526020016040518060400160405280600781526020017f426f756c6179610000000000000000000000000000000000000000000000000081525081526020016040518060400160405280600a81526020017f4d6f6e636f6e647569740000000000000000000000000000000000000000000081525081526020016040518060400160405280600881526020017f4d6174757369776100000000000000000000000000000000000000000000000081525081526020016040518060400160405280600481526020017f41646c690000000000000000000000000000000000000000000000000000000081525081526020016040518060400160405280600781526020017f4761737469656e0000000000000000000000000000000000000000000000000081525081526020016040518060400160405280600981526020017f54686f6d6173736f6e000000000000000000000000000000000000000000000081525081526020016040518060400160405280600581526020017f4d616a657200000000000000000000000000000000000000000000000000000081525081526020016040518060400160405280600781526020017f486f6e6f7261740000000000000000000000000000000000000000000000000081525081526020016040518060400160405280600581526020017f42616d626100000000000000000000000000000000000000000000000000000081525081526020016040518060400160405280600981526020017f426f756465626f757a000000000000000000000000000000000000000000000081525081526020016040518060400160405280600681526020017f4d6f6c6c6574000000000000000000000000000000000000000000000000000081525081526020016040518060400160405280600481526020017f44696f700000000000000000000000000000000000000000000000000000000081525081526020016040518060400160405280600781526020017f46756c67696e6900000000000000000000000000000000000000000000000000815250815250600d90601462000b5d929190620012da565b506040518061028001604052806040518060400160405280600681526020017f476f75697269000000000000000000000000000000000000000000000000000081525081526020016040518060400160405280600581526020017f53696d6f6e00000000000000000000000000000000000000000000000000000081525081526020016040518060400160405280600a81526020017f4b616c696d75656e646f0000000000000000000000000000000000000000000081525081526020016040518060400160405280600781526020017f44656d62656c650000000000000000000000000000000000000000000000000081525081526020016040518060400160405280600581526020017f4d696c696b00000000000000000000000000000000000000000000000000000081525081526020016040518060400160405280600581526020017f4d6573736900000000000000000000000000000000000000000000000000000081525081526020016040518060400160405280600881526020017f546f757a6768617200000000000000000000000000000000000000000000000081525081526020016040518060400160405280600581526020017f4e69616e6500000000000000000000000000000000000000000000000000000081525081526020016040518060400160405280600781526020017f536f756d616e6f0000000000000000000000000000000000000000000000000081525081526020016040518060400160405280600781526020017f456b6974696b650000000000000000000000000000000000000000000000000081525081526020016040518060400160405280600581526020017f4877616e6700000000000000000000000000000000000000000000000000000081525081526020016040518060400160405280600481526020017f4261796f0000000000000000000000000000000000000000000000000000000081525081526020016040518060400160405280600781526020017f416a6f727175650000000000000000000000000000000000000000000000000081525081526020016040518060400160405280600781526020017f4c61626f7264650000000000000000000000000000000000000000000000000081525081526020016040518060400160405280600681526020017f4d6f756e6965000000000000000000000000000000000000000000000000000081525081526020016040518060400160405280600581526020017f446176696400000000000000000000000000000000000000000000000000000081525081526020016040518060400160405280600681526020017f4b68617a7269000000000000000000000000000000000000000000000000000081525081526020016040518060400160405280600481526020017f576168690000000000000000000000000000000000000000000000000000000081525081526020016040518060400160405280600781526020017f566f6c6c616e640000000000000000000000000000000000000000000000000081525081526020016040518060400160405280600781526020017f4261686f6b656e00000000000000000000000000000000000000000000000000815250815250600e90601462001016929190620012da565b503480156200102457600080fd5b506040518060400160405280600981526020017f5371756172654e465400000000000000000000000000000000000000000000008152506040518060400160405280600681526020017f53515541524500000000000000000000000000000000000000000000000000008152508160009080519060200190620010a9929190620011e2565b508060019080519060200190620010c2929190620011e2565b505050620011106040518060400160405280601e81526020017f54686973206973206d79204e465420636f6e74726163742e20576f61682100008152506200111660201b6200140b1760201c565b620014fb565b620011b6816040516024016200112d91906200140f565b6040516020818303038152906040527f41304fac000000000000000000000000000000000000000000000000000000007bffffffffffffffffffffffffffffffffffffffffffffffffffffffff19166020820180517bffffffffffffffffffffffffffffffffffffffffffffffffffffffff8381831617835250505050620011b960201b60201c565b50565b60008151905060006a636f6e736f6c652e6c6f679050602083016000808483855afa5050505050565b828054620011f09062001485565b90600052602060002090601f01602090048101928262001214576000855562001260565b82601f106200122f57805160ff191683800117855562001260565b8280016001018555821562001260579182015b828111156200125f57825182559160200191906001019062001242565b5b5090506200126f919062001341565b5090565b828054828255906000526020600020908101928215620012c7579160200282015b82811115620012c6578251829080519060200190620012b5929190620011e2565b509160200191906001019062001294565b5b509050620012d6919062001360565b5090565b8280548282559060005260206000209081019282156200132e579160200282015b828111156200132d5782518290805190602001906200131c929190620011e2565b5091602001919060010190620012fb565b5b5090506200133d919062001360565b5090565b5b808211156200135c57600081600090555060010162001342565b5090565b5b808211156200138457600081816200137a919062001388565b5060010162001361565b5090565b508054620013969062001485565b6000825580601f10620013aa5750620013cb565b601f016020900490600052602060002090810190620013ca919062001341565b5b50565b6000620013db8262001433565b620013e781856200143e565b9350620013f98185602086016200144f565b6200140481620014ea565b840191505092915050565b600060208201905081810360008301526200142b8184620013ce565b905092915050565b600081519050919050565b600082825260208201905092915050565b60005b838110156200146f57808201518184015260208101905062001452565b838111156200147f576000848401525b50505050565b600060028204905060018216806200149e57607f821691505b60208210811415620014b557620014b4620014bb565b5b50919050565b7f4e487b7100000000000000000000000000000000000000000000000000000000600052602260045260246000fd5b6000601f19601f8301169050919050565b613d9d806200150b6000396000f3fe608060405234801561001057600080fd5b506004361061012c5760003560e01c806370a08231116100ad578063b88d4fde11610071578063b88d4fde14610355578063beb2e05b14610371578063bf5e7976146103a1578063c87b56dd146103bf578063e985e9c5146103ef5761012c565b806370a082311461028b57806395d89b41146102bb5780639af84514146102d9578063a22cb46514610309578063a5c35ad8146103255761012c565b806323b872dd116100f457806323b872dd146101d55780633a0416b3146101f157806342842e0e14610221578063561892361461023d5780636352211e1461025b5761012c565b806301ffc9a71461013157806306fdde0314610161578063081812fc1461017f578063095ea7b3146101af578063106c8dbf146101cb575b600080fd5b61014b60048036038101906101469190612999565b61041f565b6040516101589190613579565b60405180910390f35b610169610501565b6040516101769190613594565b60405180910390f35b610199600480360381019061019491906129eb565b610593565b6040516101a691906134e9565b60405180910390f35b6101c960048036038101906101c4919061295d565b610618565b005b6101d3610730565b005b6101ef60048036038101906101ea9190612857565b610b13565b005b61020b600480360381019061020691906129eb565b610b73565b6040516102189190613594565b60405180910390f35b61023b60048036038101906102369190612857565b610c8d565b005b610245610cad565b6040516102529190613832565b60405180910390f35b610275600480360381019061027091906129eb565b610cc3565b60405161028291906134e9565b60405180910390f35b6102a560048036038101906102a091906127f2565b610d75565b6040516102b29190613832565b60405180910390f35b6102c3610e2d565b6040516102d09190613594565b60405180910390f35b6102f360048036038101906102ee9190612a14565b610ebf565b6040516103009190613594565b60405180910390f35b610323600480360381019061031e9190612921565b610f6f565b005b61033f600480360381019061033a91906129eb565b610f85565b60405161034c9190613594565b60405180910390f35b61036f600480360381019061036a91906128a6565b61109f565b005b61038b600480360381019061038691906129eb565b611101565b6040516103989190613594565b60405180910390f35b6103a961121b565b6040516103b69190613832565b60405180910390f35b6103d960048036038101906103d491906129eb565b611225565b6040516103e69190613594565b60405180910390f35b6104096004803603810190610404919061281b565b611377565b6040516104169190613579565b60405180910390f35b60007f80ac58cd000000000000000000000000000000000000000000000000000000007bffffffffffffffffffffffffffffffffffffffffffffffffffffffff1916827bffffffffffffffffffffffffffffffffffffffffffffffffffffffff191614806104ea57507f5b5e139f000000000000000000000000000000000000000000000000000000007bffffffffffffffffffffffffffffffffffffffffffffffffffffffff1916827bffffffffffffffffffffffffffffffffffffffffffffffffffffffff1916145b806104fa57506104f9826114a4565b5b9050919050565b60606000805461051090613b2d565b80601f016020809104026020016040519081016040528092919081815260200182805461053c90613b2d565b80156105895780601f1061055e57610100808354040283529160200191610589565b820191906000526020600020905b81548152906001019060200180831161056c57829003601f168201915b5050505050905090565b600061059e8261150e565b6105dd576040517f08c379a00000000000000000000000000000000000000000000000000000000081526004016105d490613792565b60405180910390fd5b6004600083815260200190815260200160002060009054906101000a900473ffffffffffffffffffffffffffffffffffffffff169050919050565b600061062382610cc3565b90508073ffffffffffffffffffffffffffffffffffffffff168373ffffffffffffffffffffffffffffffffffffffff161415610694576040517f08c379a000000000000000000000000000000000000000000000000000000000815260040161068b906137f2565b60405180910390fd5b8073ffffffffffffffffffffffffffffffffffffffff166106b361157a565b73ffffffffffffffffffffffffffffffffffffffff1614806106e257506106e1816106dc61157a565b611377565b5b610721576040517f08c379a0000000000000000000000000000000000000000000000000000000008152600401610718906136d2565b60405180910390fd5b61072b8383611582565b505050565b600061073c600761163b565b9050600061074861121b565b9050808210610798576107916040518060400160405280601a81526020017f4d415820414d4f554e542052454143484544202573202f2025730000000000008152508383611649565b5050610b11565b60006107a383611101565b905060006107b084610f85565b905060006107bd85610b73565b905060006108d286600b805480602002602001604051908101604052809291908181526020016000905b8282101561089357838290600052602060002001805461080690613b2d565b80601f016020809104026020016040519081016040528092919081815260200182805461083290613b2d565b801561087f5780601f106108545761010080835404028352916020019161087f565b820191906000526020600020905b81548152906001019060200180831161086257829003601f168201915b5050505050815260200190600101906107e7565b505050506040518060400160405280600581526020017f434f4c4f52000000000000000000000000000000000000000000000000000000815250610ebf565b905060008484846040516020016108eb939291906133bd565b60405160208183030381529060405290506000600983600a846040516020016109179493929190613439565b60405160208183030381529060405290506109666040518060400160405280601581526020017f0a2d2d2d2d2d2d2d2d2d2d2d2d2d2d2d2d2d2d2d2d000000000000000000000081525061140b565b61096f8161140b565b6109ad6040518060400160405280601581526020017f2d2d2d2d2d2d2d2d2d2d2d2d2d2d2d2d2d2d2d2d0a000000000000000000000081525061140b565b60006109e1836109bc846116e8565b6040516020016109cd929190613482565b6040516020818303038152906040526116e8565b90506000816040516020016109f691906134c7565b6040516020818303038152906040529050610a456040518060400160405280601581526020017f0a2d2d2d2d2d2d2d2d2d2d2d2d2d2d2d2d2d2d2d2d000000000000000000000081525061140b565b610a4e8161140b565b610a8c6040518060400160405280601581526020017f2d2d2d2d2d2d2d2d2d2d2d2d2d2d2d2d2d2d2d2d0a000000000000000000000081525061140b565b610a96338b6118a6565b610aa08a826118c4565b610aaa6007611938565b610acd604051806060016040528060258152602001613d03602591398b3361194e565b7fda1c5ebd1a960536666627f80286b46cda8f466515875b771737d9d7ed3f34d7338b604051610afe929190613550565b60405180910390a1505050505050505050505b565b610b24610b1e61157a565b826119ed565b610b63576040517f08c379a0000000000000000000000000000000000000000000000000000000008152600401610b5a90613812565b60405180910390fd5b610b6e838383611acb565b505050565b6060610c8682600e805480602002602001604051908101604052809291908181526020016000905b82821015610c47578382906000526020600020018054610bba90613b2d565b80601f0160208091040260200160405190810160405280929190818152602001828054610be690613b2d565b8015610c335780601f10610c0857610100808354040283529160200191610c33565b820191906000526020600020905b815481529060010190602001808311610c1657829003601f168201915b505050505081526020019060010190610b9b565b505050506040518060400160405280600a81526020017f54484952445f574f524400000000000000000000000000000000000000000000815250610ebf565b9050919050565b610ca88383836040518060200160405280600081525061109f565b505050565b600080610cba600761163b565b90508091505090565b6000806002600084815260200190815260200160002060009054906101000a900473ffffffffffffffffffffffffffffffffffffffff169050600073ffffffffffffffffffffffffffffffffffffffff168173ffffffffffffffffffffffffffffffffffffffff161415610d6c576040517f08c379a0000000000000000000000000000000000000000000000000000000008152600401610d6390613712565b60405180910390fd5b80915050919050565b60008073ffffffffffffffffffffffffffffffffffffffff168273ffffffffffffffffffffffffffffffffffffffff161415610de6576040517f08c379a0000000000000000000000000000000000000000000000000000000008152600401610ddd906136f2565b60405180910390fd5b600360008373ffffffffffffffffffffffffffffffffffffffff1673ffffffffffffffffffffffffffffffffffffffff168152602001908152602001600020549050919050565b606060018054610e3c90613b2d565b80601f0160208091040260200160405190810160405280929190818152602001828054610e6890613b2d565b8015610eb55780601f10610e8a57610100808354040283529160200191610eb5565b820191906000526020600020905b815481529060010190602001808311610e9857829003601f168201915b5050505050905090565b60606000610f1383610ed087611d27565b610ed944611d27565b610ee243611d27565b610eeb42611d27565b604051602001610eff9594939291906133ee565b604051602081830303815290604052611ed4565b9050835181610f229190613ba8565b9050838181518110610f5d577f4e487b7100000000000000000000000000000000000000000000000000000000600052603260045260246000fd5b60200260200101519150509392505050565b610f81610f7a61157a565b8383611f07565b5050565b606061109882600d805480602002602001604051908101604052809291908181526020016000905b82821015611059578382906000526020600020018054610fcc90613b2d565b80601f0160208091040260200160405190810160405280929190818152602001828054610ff890613b2d565b80156110455780601f1061101a57610100808354040283529160200191611045565b820191906000526020600020905b81548152906001019060200180831161102857829003601f168201915b505050505081526020019060010190610fad565b505050506040518060400160405280600b81526020017f5345434f4e445f574f5244000000000000000000000000000000000000000000815250610ebf565b9050919050565b6110b06110aa61157a565b836119ed565b6110ef576040517f08c379a00000000000000000000000000000000000000000000000000000000081526004016110e690613812565b60405180910390fd5b6110fb84848484612074565b50505050565b606061121482600c805480602002602001604051908101604052809291908181526020016000905b828210156111d557838290600052602060002001805461114890613b2d565b80601f016020809104026020016040519081016040528092919081815260200182805461117490613b2d565b80156111c15780601f10611196576101008083540402835291602001916111c1565b820191906000526020600020905b8154815290600101906020018083116111a457829003601f168201915b505050505081526020019060010190611129565b505050506040518060400160405280600a81526020017f46495253545f574f524400000000000000000000000000000000000000000000815250610ebf565b9050919050565b6000600854905090565b60606112308261150e565b61126f576040517f08c379a000000000000000000000000000000000000000000000000000000000815260040161126690613772565b60405180910390fd5b600060066000848152602001908152602001600020805461128f90613b2d565b80601f01602080910402602001604051908101604052809291908181526020018280546112bb90613b2d565b80156113085780601f106112dd57610100808354040283529160200191611308565b820191906000526020600020905b8154815290600101906020018083116112eb57829003601f168201915b5050505050905060006113196120d0565b905060008151141561132f578192505050611372565b60008251111561136457808260405160200161134c929190613399565b60405160208183030381529060405292505050611372565b61136d846120e7565b925050505b919050565b6000600560008473ffffffffffffffffffffffffffffffffffffffff1673ffffffffffffffffffffffffffffffffffffffff16815260200190815260200160002060008373ffffffffffffffffffffffffffffffffffffffff1673ffffffffffffffffffffffffffffffffffffffff16815260200190815260200160002060009054906101000a900460ff16905092915050565b6114a18160405160240161141f9190613594565b6040516020818303038152906040527f41304fac000000000000000000000000000000000000000000000000000000007bffffffffffffffffffffffffffffffffffffffffffffffffffffffff19166020820180517bffffffffffffffffffffffffffffffffffffffffffffffffffffffff838183161783525050505061218e565b50565b60007f01ffc9a7000000000000000000000000000000000000000000000000000000007bffffffffffffffffffffffffffffffffffffffffffffffffffffffff1916827bffffffffffffffffffffffffffffffffffffffffffffffffffffffff1916149050919050565b60008073ffffffffffffffffffffffffffffffffffffffff166002600084815260200190815260200160002060009054906101000a900473ffffffffffffffffffffffffffffffffffffffff1673ffffffffffffffffffffffffffffffffffffffff1614159050919050565b600033905090565b816004600083815260200190815260200160002060006101000a81548173ffffffffffffffffffffffffffffffffffffffff021916908373ffffffffffffffffffffffffffffffffffffffff160217905550808273ffffffffffffffffffffffffffffffffffffffff166115f583610cc3565b73ffffffffffffffffffffffffffffffffffffffff167f8c5be1e5ebec7d5bd14f71427d1e84f3dd0314c0f7b2291e5b200ac8c7c3b92560405160405180910390a45050565b600081600001549050919050565b6116e3838383604051602401611661939291906135f4565b6040516020818303038152906040527f969cdd03000000000000000000000000000000000000000000000000000000007bffffffffffffffffffffffffffffffffffffffffffffffffffffffff19166020820180517bffffffffffffffffffffffffffffffffffffffffffffffffffffffff838183161783525050505061218e565b505050565b6060600082519050600081141561171157604051806020016040528060008152509150506118a1565b600060036002836117229190613962565b61172c91906139b8565b600461173891906139e9565b905060006020826117499190613962565b67ffffffffffffffff811115611788577f4e487b7100000000000000000000000000000000000000000000000000000000600052604160045260246000fd5b6040519080825280601f01601f1916602001820160405280156117ba5781602001600182028036833780820191505090505b5090506000604051806060016040528060408152602001613d28604091399050600181016020830160005b8681101561185e5760038101905062ffffff818a015116603f8160121c168401518060081b905060ff603f83600c1c1686015116810190508060081b905060ff603f8360061c1686015116810190508060081b905060ff603f831686015116810190508060e01b905080845260048401935050506117e5565b506003860660018114611878576002811461188857611893565b613d3d60f01b6002830352611893565b603d60f81b60018303525b508484525050819450505050505b919050565b6118c08282604051806020016040528060008152506121b7565b5050565b6118cd8261150e565b61190c576040517f08c379a000000000000000000000000000000000000000000000000000000000815260040161190390613732565b60405180910390fd5b8060066000848152602001908152602001600020908051906020019061193392919061258f565b505050565b6001816000016000828254019250508190555050565b6119e8838383604051602401611966939291906135b6565b6040516020818303038152906040527fe3849f79000000000000000000000000000000000000000000000000000000007bffffffffffffffffffffffffffffffffffffffffffffffffffffffff19166020820180517bffffffffffffffffffffffffffffffffffffffffffffffffffffffff838183161783525050505061218e565b505050565b60006119f88261150e565b611a37576040517f08c379a0000000000000000000000000000000000000000000000000000000008152600401611a2e906136b2565b60405180910390fd5b6000611a4283610cc3565b90508073ffffffffffffffffffffffffffffffffffffffff168473ffffffffffffffffffffffffffffffffffffffff161480611ab157508373ffffffffffffffffffffffffffffffffffffffff16611a9984610593565b73ffffffffffffffffffffffffffffffffffffffff16145b80611ac25750611ac18185611377565b5b91505092915050565b8273ffffffffffffffffffffffffffffffffffffffff16611aeb82610cc3565b73ffffffffffffffffffffffffffffffffffffffff1614611b41576040517f08c379a0000000000000000000000000000000000000000000000000000000008152600401611b38906137b2565b60405180910390fd5b600073ffffffffffffffffffffffffffffffffffffffff168273ffffffffffffffffffffffffffffffffffffffff161415611bb1576040517f08c379a0000000000000000000000000000000000000000000000000000000008152600401611ba890613672565b60405180910390fd5b611bbc838383612212565b611bc7600082611582565b6001600360008573ffffffffffffffffffffffffffffffffffffffff1673ffffffffffffffffffffffffffffffffffffffff1681526020019081526020016000206000828254611c179190613a43565b925050819055506001600360008473ffffffffffffffffffffffffffffffffffffffff1673ffffffffffffffffffffffffffffffffffffffff1681526020019081526020016000206000828254611c6e9190613962565b92505081905550816002600083815260200190815260200160002060006101000a81548173ffffffffffffffffffffffffffffffffffffffff021916908373ffffffffffffffffffffffffffffffffffffffff160217905550808273ffffffffffffffffffffffffffffffffffffffff168473ffffffffffffffffffffffffffffffffffffffff167fddf252ad1be2c89b69c2b068fc378daa952ba7f163c4a11628f55a4df523b3ef60405160405180910390a4505050565b60606000821415611d6f576040518060400160405280600181526020017f30000000000000000000000000000000000000000000000000000000000000008152509050611ecf565b600082905060005b60008214611da1578080611d8a90613b5f565b915050600a82611d9a91906139b8565b9150611d77565b60008167ffffffffffffffff811115611de3577f4e487b7100000000000000000000000000000000000000000000000000000000600052604160045260246000fd5b6040519080825280601f01601f191660200182016040528015611e155781602001600182028036833780820191505090505b5090505b60008514611ec857600182611e2e9190613a43565b9150600a85611e3d9190613ba8565b6030611e499190613962565b60f81b818381518110611e85577f4e487b7100000000000000000000000000000000000000000000000000000000600052603260045260246000fd5b60200101907effffffffffffffffffffffffffffffffffffffffffffffffffffffffffffff1916908160001a905350600a85611ec191906139b8565b9450611e19565b8093505050505b919050565b600081604051602001611ee79190613382565b6040516020818303038152906040528051906020012060001c9050919050565b8173ffffffffffffffffffffffffffffffffffffffff168373ffffffffffffffffffffffffffffffffffffffff161415611f76576040517f08c379a0000000000000000000000000000000000000000000000000000000008152600401611f6d90613692565b60405180910390fd5b80600560008573ffffffffffffffffffffffffffffffffffffffff1673ffffffffffffffffffffffffffffffffffffffff16815260200190815260200160002060008473ffffffffffffffffffffffffffffffffffffffff1673ffffffffffffffffffffffffffffffffffffffff16815260200190815260200160002060006101000a81548160ff0219169083151502179055508173ffffffffffffffffffffffffffffffffffffffff168373ffffffffffffffffffffffffffffffffffffffff167f17307eab39ab6107e8899845ad3d59bd9653f200f220920489ca2b5937696c31836040516120679190613579565b60405180910390a3505050565b61207f848484611acb565b61208b84848484612217565b6120ca576040517f08c379a00000000000000000000000000000000000000000000000000000000081526004016120c190613632565b60405180910390fd5b50505050565b606060405180602001604052806000815250905090565b60606120f28261150e565b612131576040517f08c379a0000000000000000000000000000000000000000000000000000000008152600401612128906137d2565b60405180910390fd5b600061213b6120d0565b9050600081511161215b5760405180602001604052806000815250612186565b8061216584611d27565b604051602001612176929190613399565b6040516020818303038152906040525b915050919050565b60008151905060006a636f6e736f6c652e6c6f679050602083016000808483855afa5050505050565b6121c183836123ae565b6121ce6000848484612217565b61220d576040517f08c379a000000000000000000000000000000000000000000000000000000000815260040161220490613632565b60405180910390fd5b505050565b505050565b60006122388473ffffffffffffffffffffffffffffffffffffffff1661257c565b156123a1578373ffffffffffffffffffffffffffffffffffffffff1663150b7a0261226161157a565b8786866040518563ffffffff1660e01b81526004016122839493929190613504565b602060405180830381600087803b15801561229d57600080fd5b505af19250505080156122ce57506040513d601f19601f820116820180604052508101906122cb91906129c2565b60015b612351573d80600081146122fe576040519150601f19603f3d011682016040523d82523d6000602084013e612303565b606091505b50600081511415612349576040517f08c379a000000000000000000000000000000000000000000000000000000000815260040161234090613632565b60405180910390fd5b805181602001fd5b63150b7a0260e01b7bffffffffffffffffffffffffffffffffffffffffffffffffffffffff1916817bffffffffffffffffffffffffffffffffffffffffffffffffffffffff1916149150506123a6565b600190505b949350505050565b600073ffffffffffffffffffffffffffffffffffffffff168273ffffffffffffffffffffffffffffffffffffffff16141561241e576040517f08c379a000000000000000000000000000000000000000000000000000000000815260040161241590613752565b60405180910390fd5b6124278161150e565b15612467576040517f08c379a000000000000000000000000000000000000000000000000000000000815260040161245e90613652565b60405180910390fd5b61247360008383612212565b6001600360008473ffffffffffffffffffffffffffffffffffffffff1673ffffffffffffffffffffffffffffffffffffffff16815260200190815260200160002060008282546124c39190613962565b92505081905550816002600083815260200190815260200160002060006101000a81548173ffffffffffffffffffffffffffffffffffffffff021916908373ffffffffffffffffffffffffffffffffffffffff160217905550808273ffffffffffffffffffffffffffffffffffffffff16600073ffffffffffffffffffffffffffffffffffffffff167fddf252ad1be2c89b69c2b068fc378daa952ba7f163c4a11628f55a4df523b3ef60405160405180910390a45050565b600080823b905060008111915050919050565b82805461259b90613b2d565b90600052602060002090601f0160209004810192826125bd5760008555612604565b82601f106125d657805160ff1916838001178555612604565b82800160010185558215612604579182015b828111156126035782518255916020019190600101906125e8565b5b5090506126119190612615565b5090565b5b8082111561262e576000816000905550600101612616565b5090565b60006126456126408461387e565b61384d565b9050808382526020820190508260005b85811015612685578135850161266b88826127b3565b845260208401935060208301925050600181019050612655565b5050509392505050565b60006126a261269d846138aa565b61384d565b9050828152602081018484840111156126ba57600080fd5b6126c5848285613aeb565b509392505050565b60006126e06126db846138da565b61384d565b9050828152602081018484840111156126f857600080fd5b612703848285613aeb565b509392505050565b60008135905061271a81613ca6565b92915050565b600082601f83011261273157600080fd5b8135612741848260208601612632565b91505092915050565b60008135905061275981613cbd565b92915050565b60008135905061276e81613cd4565b92915050565b60008151905061278381613cd4565b92915050565b600082601f83011261279a57600080fd5b81356127aa84826020860161268f565b91505092915050565b600082601f8301126127c457600080fd5b81356127d48482602086016126cd565b91505092915050565b6000813590506127ec81613ceb565b92915050565b60006020828403121561280457600080fd5b60006128128482850161270b565b91505092915050565b6000806040838503121561282e57600080fd5b600061283c8582860161270b565b925050602061284d8582860161270b565b9150509250929050565b60008060006060848603121561286c57600080fd5b600061287a8682870161270b565b935050602061288b8682870161270b565b925050604061289c868287016127dd565b9150509250925092565b600080600080608085870312156128bc57600080fd5b60006128ca8782880161270b565b94505060206128db8782880161270b565b93505060406128ec878288016127dd565b925050606085013567ffffffffffffffff81111561290957600080fd5b61291587828801612789565b91505092959194509250565b6000806040838503121561293457600080fd5b60006129428582860161270b565b92505060206129538582860161274a565b9150509250929050565b6000806040838503121561297057600080fd5b600061297e8582860161270b565b925050602061298f858286016127dd565b9150509250929050565b6000602082840312156129ab57600080fd5b60006129b98482850161275f565b91505092915050565b6000602082840312156129d457600080fd5b60006129e284828501612774565b91505092915050565b6000602082840312156129fd57600080fd5b6000612a0b848285016127dd565b91505092915050565b600080600060608486031215612a2957600080fd5b6000612a37868287016127dd565b935050602084013567ffffffffffffffff811115612a5457600080fd5b612a6086828701612720565b925050604084013567ffffffffffffffff811115612a7d57600080fd5b612a89868287016127b3565b9150509250925092565b612a9c81613a77565b82525050565b612aab81613a89565b82525050565b6000612abc8261391f565b612ac68185613935565b9350612ad6818560208601613afa565b612adf81613c95565b840191505092915050565b6000612af58261392a565b612aff8185613946565b9350612b0f818560208601613afa565b612b1881613c95565b840191505092915050565b6000612b2e8261392a565b612b388185613957565b9350612b48818560208601613afa565b80840191505092915050565b60008154612b6181613b2d565b612b6b8186613957565b94506001821660008114612b865760018114612b9757612bca565b60ff19831686528186019350612bca565b612ba08561390a565b60005b83811015612bc257815481890152600182019150602081019050612ba3565b838801955050505b50505092915050565b6000612be0603283613946565b91507f4552433732313a207472616e7366657220746f206e6f6e20455243373231526560008301527f63656976657220696d706c656d656e74657200000000000000000000000000006020830152604082019050919050565b6000612c46601c83613946565b91507f4552433732313a20746f6b656e20616c7265616479206d696e746564000000006000830152602082019050919050565b6000612c86602483613946565b91507f4552433732313a207472616e7366657220746f20746865207a65726f2061646460008301527f72657373000000000000000000000000000000000000000000000000000000006020830152604082019050919050565b6000612cec601983613946565b91507f4552433732313a20617070726f766520746f2063616c6c6572000000000000006000830152602082019050919050565b6000612d2c602c83613946565b91507f4552433732313a206f70657261746f7220717565727920666f72206e6f6e657860008301527f697374656e7420746f6b656e00000000000000000000000000000000000000006020830152604082019050919050565b6000612d92600d83613957565b91507f3c2f746578743e3c2f7376673e000000000000000000000000000000000000006000830152600d82019050919050565b6000612dd2603883613946565b91507f4552433732313a20617070726f76652063616c6c6572206973206e6f74206f7760008301527f6e6572206e6f7220617070726f76656420666f7220616c6c00000000000000006020830152604082019050919050565b6000612e38602a83613946565b91507f4552433732313a2062616c616e636520717565727920666f7220746865207a6560008301527f726f2061646472657373000000000000000000000000000000000000000000006020830152604082019050919050565b6000612e9e602983613946565b91507f4552433732313a206f776e657220717565727920666f72206e6f6e657869737460008301527f656e7420746f6b656e00000000000000000000000000000000000000000000006020830152604082019050919050565b6000612f04602e83613946565b91507f45524337323155524953746f726167653a2055524920736574206f66206e6f6e60008301527f6578697374656e7420746f6b656e0000000000000000000000000000000000006020830152604082019050919050565b6000612f6a606983613957565b91507f222c20226465736372697074696f6e223a20224120646566656e6465722c206d60008301527f69646669656c6420616e6420666f727761726420736f6363657220706c61796560208301527f722e222c2022696d616765223a2022646174613a696d6167652f7376672b786d60408301527f6c3b6261736536342c00000000000000000000000000000000000000000000006060830152606982019050919050565b600061301c600283613957565b91507f227d0000000000000000000000000000000000000000000000000000000000006000830152600282019050919050565b600061305c602083613946565b91507f4552433732313a206d696e7420746f20746865207a65726f20616464726573736000830152602082019050919050565b600061309c603183613946565b91507f45524337323155524953746f726167653a2055524920717565727920666f722060008301527f6e6f6e6578697374656e7420746f6b656e0000000000000000000000000000006020830152604082019050919050565b6000613102602c83613946565b91507f4552433732313a20617070726f76656420717565727920666f72206e6f6e657860008301527f697374656e7420746f6b656e00000000000000000000000000000000000000006020830152604082019050919050565b6000613168602983613946565b91507f4552433732313a207472616e73666572206f6620746f6b656e2074686174206960008301527f73206e6f74206f776e00000000000000000000000000000000000000000000006020830152604082019050919050565b60006131ce602f83613946565b91507f4552433732314d657461646174613a2055524920717565727920666f72206e6f60008301527f6e6578697374656e7420746f6b656e00000000000000000000000000000000006020830152604082019050919050565b6000613234600a83613957565b91507f7b226e616d65223a2022000000000000000000000000000000000000000000006000830152600a82019050919050565b6000613274602183613946565b91507f4552433732313a20617070726f76616c20746f2063757272656e74206f776e6560008301527f72000000000000000000000000000000000000000000000000000000000000006020830152604082019050919050565b60006132da601d83613957565b91507f646174613a6170706c69636174696f6e2f6a736f6e3b6261736536342c0000006000830152601d82019050919050565b600061331a603183613946565b91507f4552433732313a207472616e736665722063616c6c6572206973206e6f74206f60008301527f776e6572206e6f7220617070726f7665640000000000000000000000000000006020830152604082019050919050565b61337c81613ae1565b82525050565b600061338e8284612b23565b915081905092915050565b60006133a58285612b23565b91506133b18284612b23565b91508190509392505050565b60006133c98286612b23565b91506133d58285612b23565b91506133e18284612b23565b9150819050949350505050565b60006133fa8288612b23565b91506134068287612b23565b91506134128286612b23565b915061341e8285612b23565b915061342a8284612b23565b91508190509695505050505050565b60006134458287612b54565b91506134518286612b23565b915061345d8285612b54565b91506134698284612b23565b915061347482612d85565b915081905095945050505050565b600061348d82613227565b91506134998285612b23565b91506134a482612f5d565b91506134b08284612b23565b91506134bb8261300f565b91508190509392505050565b60006134d2826132cd565b91506134de8284612b23565b915081905092915050565b60006020820190506134fe6000830184612a93565b92915050565b60006080820190506135196000830187612a93565b6135266020830186612a93565b6135336040830185613373565b81810360608301526135458184612ab1565b905095945050505050565b60006040820190506135656000830185612a93565b6135726020830184613373565b9392505050565b600060208201905061358e6000830184612aa2565b92915050565b600060208201905081810360008301526135ae8184612aea565b905092915050565b600060608201905081810360008301526135d08186612aea565b90506135df6020830185613373565b6135ec6040830184612a93565b949350505050565b6000606082019050818103600083015261360e8186612aea565b905061361d6020830185613373565b61362a6040830184613373565b949350505050565b6000602082019050818103600083015261364b81612bd3565b9050919050565b6000602082019050818103600083015261366b81612c39565b9050919050565b6000602082019050818103600083015261368b81612c79565b9050919050565b600060208201905081810360008301526136ab81612cdf565b9050919050565b600060208201905081810360008301526136cb81612d1f565b9050919050565b600060208201905081810360008301526136eb81612dc5565b9050919050565b6000602082019050818103600083015261370b81612e2b565b9050919050565b6000602082019050818103600083015261372b81612e91565b9050919050565b6000602082019050818103600083015261374b81612ef7565b9050919050565b6000602082019050818103600083015261376b8161304f565b9050919050565b6000602082019050818103600083015261378b8161308f565b9050919050565b600060208201905081810360008301526137ab816130f5565b9050919050565b600060208201905081810360008301526137cb8161315b565b9050919050565b600060208201905081810360008301526137eb816131c1565b9050919050565b6000602082019050818103600083015261380b81613267565b9050919050565b6000602082019050818103600083015261382b8161330d565b9050919050565b60006020820190506138476000830184613373565b92915050565b6000604051905081810181811067ffffffffffffffff8211171561387457613873613c66565b5b8060405250919050565b600067ffffffffffffffff82111561389957613898613c66565b5b602082029050602081019050919050565b600067ffffffffffffffff8211156138c5576138c4613c66565b5b601f19601f8301169050602081019050919050565b600067ffffffffffffffff8211156138f5576138f4613c66565b5b601f19601f8301169050602081019050919050565b60008190508160005260206000209050919050565b600081519050919050565b600081519050919050565b600082825260208201905092915050565b600082825260208201905092915050565b600081905092915050565b600061396d82613ae1565b915061397883613ae1565b9250827fffffffffffffffffffffffffffffffffffffffffffffffffffffffffffffffff038211156139ad576139ac613bd9565b5b828201905092915050565b60006139c382613ae1565b91506139ce83613ae1565b9250826139de576139dd613c08565b5b828204905092915050565b60006139f482613ae1565b91506139ff83613ae1565b9250817fffffffffffffffffffffffffffffffffffffffffffffffffffffffffffffffff0483118215151615613a3857613a37613bd9565b5b828202905092915050565b6000613a4e82613ae1565b9150613a5983613ae1565b925082821015613a6c57613a6b613bd9565b5b828203905092915050565b6000613a8282613ac1565b9050919050565b60008115159050919050565b60007fffffffff0000000000000000000000000000000000000000000000000000000082169050919050565b600073ffffffffffffffffffffffffffffffffffffffff82169050919050565b6000819050919050565b82818337600083830152505050565b60005b83811015613b18578082015181840152602081019050613afd565b83811115613b27576000848401525b50505050565b60006002820490506001821680613b4557607f821691505b60208210811415613b5957613b58613c37565b5b50919050565b6000613b6a82613ae1565b91507fffffffffffffffffffffffffffffffffffffffffffffffffffffffffffffffff821415613b9d57613b9c613bd9565b5b600182019050919050565b6000613bb382613ae1565b9150613bbe83613ae1565b925082613bce57613bcd613c08565b5b828206905092915050565b7f4e487b7100000000000000000000000000000000000000000000000000000000600052601160045260246000fd5b7f4e487b7100000000000000000000000000000000000000000000000000000000600052601260045260246000fd5b7f4e487b7100000000000000000000000000000000000000000000000000000000600052602260045260246000fd5b7f4e487b7100000000000000000000000000000000000000000000000000000000600052604160045260246000fd5b6000601f19601f8301169050919050565b613caf81613a77565b8114613cba57600080fd5b50565b613cc681613a89565b8114613cd157600080fd5b50565b613cdd81613a95565b8114613ce857600080fd5b50565b613cf481613ae1565b8114613cff57600080fd5b5056fe416e204e465420772f20494420257320686173206265656e206d696e74656420746f2025734142434445464748494a4b4c4d4e4f505152535455565758595a6162636465666768696a6b6c6d6e6f707172737475767778797a303132333435363738392b2fa2646970667358221220fa36278ddc69f94651b464ce271f61557098901ead991f8502b1280864420f8164736f6c634300080000333c73766720786d6c6e733d27687474703a2f2f7777772e77332e6f72672f323030302f73766727207072657365727665417370656374526174696f3d27784d696e594d696e206d656574272076696577426f783d273020302033353020333530273e3c7374796c653e2e62617365207b2066696c6c3a2077686974653b20666f6e742d66616d696c793a2073657269663b20666f6e742d73697a653a20323470783b207d3c2f7374796c653e3c726563742077696474683d273130302527206865696768743d2731303025272066696c6c3d27272f3e3c7465787420783d273530252720793d273530252720636c6173733d27626173652720646f6d696e616e742d626173656c696e653d276d6964646c652720746578742d616e63686f723d276d6964646c65273e",
  "linkReferences": {},
  "deployedLinkReferences": {}
}